{
  "contracts/Medicare_claims.sol": {
    "Approval": {
      "abi": [
        {
          "inputs": [
            {
              "internalType": "address",
              "name": "_reg_contract_address",
              "type": "address"
            }
          ],
          "stateMutability": "nonpayable",
          "type": "constructor"
        },
        {
          "anonymous": false,
          "inputs": [
            {
              "indexed": false,
              "internalType": "address",
              "name": "Insurance_Company",
              "type": "address"
            },
            {
              "indexed": false,
              "internalType": "uint256",
              "name": "medicationinvoiceID",
              "type": "uint256"
            }
          ],
          "name": "ClaimPaid",
          "type": "event"
        },
        {
          "anonymous": false,
          "inputs": [
            {
              "indexed": false,
              "internalType": "address",
              "name": "_pharmacy",
              "type": "address"
            },
            {
              "indexed": false,
              "internalType": "uint256",
              "name": "medicationinvoiceID",
              "type": "uint256"
            }
          ],
          "name": "PaymentRequested",
          "type": "event"
        },
        {
          "anonymous": false,
          "inputs": [
            {
              "indexed": true,
              "internalType": "address",
              "name": "pharmacy",
              "type": "address"
            },
            {
              "indexed": false,
              "internalType": "uint256",
              "name": "status",
              "type": "uint256"
            }
          ],
          "name": "PharmacyApprovalStateChanged",
          "type": "event"
        },
        {
          "anonymous": false,
          "inputs": [
            {
              "indexed": true,
              "internalType": "address",
              "name": "patient",
              "type": "address"
            },
            {
              "indexed": false,
              "internalType": "uint256",
              "name": "selectionCount",
              "type": "uint256"
            }
          ],
          "name": "PharmacySelected",
          "type": "event"
        },
        {
          "anonymous": false,
          "inputs": [
            {
              "indexed": true,
              "internalType": "address",
              "name": "Physician",
              "type": "address"
            },
            {
              "indexed": false,
              "internalType": "uint256",
              "name": "PatientID",
              "type": "uint256"
            },
            {
              "indexed": false,
              "internalType": "bytes32",
              "name": "_IPFShash",
              "type": "bytes32"
            }
          ],
          "name": "PrescriptionCreated",
          "type": "event"
        },
        {
          "anonymous": false,
          "inputs": [
            {
              "indexed": false,
              "internalType": "address",
              "name": "Insurance_Company",
              "type": "address"
            },
            {
              "indexed": false,
              "internalType": "uint256",
              "name": "insuranceApprovalstatus",
              "type": "uint256"
            },
            {
              "indexed": false,
              "internalType": "uint256",
              "name": "PatientID",
              "type": "uint256"
            },
            {
              "indexed": false,
              "internalType": "address",
              "name": "_Pharmacyaddress",
              "type": "address"
            }
          ],
          "name": "RequestApproval",
          "type": "event"
        },
        {
          "anonymous": false,
          "inputs": [
            {
              "indexed": false,
              "internalType": "address",
              "name": "_pharmacy",
              "type": "address"
            },
            {
              "indexed": false,
              "internalType": "uint256",
              "name": "PatientID",
              "type": "uint256"
            }
          ],
          "name": "RequestInsuranceApprovalStateChanged",
          "type": "event"
        },
        {
          "anonymous": false,
          "inputs": [
            {
              "indexed": false,
              "internalType": "address",
              "name": "Insurance_Company",
              "type": "address"
            },
            {
              "indexed": false,
              "internalType": "uint256",
              "name": "insuranceApprovalstatus",
              "type": "uint256"
            },
            {
              "indexed": false,
              "internalType": "uint256",
              "name": "PatientID",
              "type": "uint256"
            },
            {
              "indexed": false,
              "internalType": "address",
              "name": "_Pharmacyaddress",
              "type": "address"
            }
          ],
          "name": "RequestRejection",
          "type": "event"
        },
        {
          "anonymous": false,
          "inputs": [
            {
              "indexed": false,
              "internalType": "address",
              "name": "Patient",
              "type": "address"
            },
            {
              "indexed": false,
              "internalType": "uint256",
              "name": "PatientID",
              "type": "uint256"
            },
            {
              "indexed": false,
              "internalType": "bytes32",
              "name": "_IPFShash",
              "type": "bytes32"
            }
          ],
          "name": "medicationcollected",
          "type": "event"
        },
        {
          "anonymous": false,
          "inputs": [
            {
              "indexed": false,
              "internalType": "address",
              "name": "_pharmacy",
              "type": "address"
            },
            {
              "indexed": false,
              "internalType": "uint256",
              "name": "PatientID",
              "type": "uint256"
            }
          ],
          "name": "medicationisprepread",
          "type": "event"
        },
        {
          "inputs": [],
          "name": "ApprovalState",
          "outputs": [
            {
              "internalType": "enum Approval.ApprovalRequestState",
              "name": "",
              "type": "uint8"
            }
          ],
          "stateMutability": "view",
          "type": "function"
        },
        {
          "inputs": [
            {
              "internalType": "uint256",
              "name": "_medicationinvoiceID",
              "type": "uint256"
            }
          ],
          "name": "ClaimPayment",
          "outputs": [],
          "stateMutability": "payable",
          "type": "function"
        },
        {
          "inputs": [],
          "name": "Drug1CRN",
          "outputs": [
            {
              "internalType": "uint256",
              "name": "",
              "type": "uint256"
            }
          ],
          "stateMutability": "view",
          "type": "function"
        },
        {
          "inputs": [],
          "name": "Drug2CRN",
          "outputs": [
            {
              "internalType": "uint256",
              "name": "",
              "type": "uint256"
            }
          ],
          "stateMutability": "view",
          "type": "function"
        },
        {
          "inputs": [],
          "name": "Drug3CRN",
          "outputs": [
            {
              "internalType": "uint256",
              "name": "",
              "type": "uint256"
            }
          ],
          "stateMutability": "view",
          "type": "function"
        },
        {
          "inputs": [],
          "name": "DrugTotalCost",
          "outputs": [
            {
              "internalType": "uint256",
              "name": "",
              "type": "uint256"
            }
          ],
          "stateMutability": "view",
          "type": "function"
        },
        {
          "inputs": [],
          "name": "IPFShash",
          "outputs": [
            {
              "internalType": "bytes32",
              "name": "",
              "type": "bytes32"
            }
          ],
          "stateMutability": "view",
          "type": "function"
        },
        {
          "inputs": [
            {
              "internalType": "enum Approval.InsuranceApprovalState",
              "name": "_insApproval",
              "type": "uint8"
            },
            {
              "internalType": "address",
              "name": "_Pharmacy",
              "type": "address"
            },
            {
              "internalType": "uint256",
              "name": "patient_",
              "type": "uint256"
            }
          ],
          "name": "InsuranceApproval",
          "outputs": [],
          "stateMutability": "nonpayable",
          "type": "function"
        },
        {
          "inputs": [],
          "name": "InsuranceApprovalstate",
          "outputs": [
            {
              "internalType": "enum Approval.InsuranceApprovalState",
              "name": "",
              "type": "uint8"
            }
          ],
          "stateMutability": "view",
          "type": "function"
        },
        {
          "inputs": [
            {
              "internalType": "uint256",
              "name": "patient_",
              "type": "uint256"
            }
          ],
          "name": "MedicationCollection",
          "outputs": [],
          "stateMutability": "nonpayable",
          "type": "function"
        },
        {
          "inputs": [],
          "name": "MedicationInvoice_ID",
          "outputs": [
            {
              "internalType": "uint256",
              "name": "",
              "type": "uint256"
            }
          ],
          "stateMutability": "view",
          "type": "function"
        },
        {
          "inputs": [
            {
              "internalType": "uint256",
              "name": "patient_",
              "type": "uint256"
            }
          ],
          "name": "MedicationPreparation",
          "outputs": [],
          "stateMutability": "nonpayable",
          "type": "function"
        },
        {
          "inputs": [],
          "name": "MedicineCollectionstate",
          "outputs": [
            {
              "internalType": "enum Approval.MedicineCollectionState",
              "name": "",
              "type": "uint8"
            }
          ],
          "stateMutability": "view",
          "type": "function"
        },
        {
          "inputs": [],
          "name": "PaidAmount",
          "outputs": [
            {
              "internalType": "uint256",
              "name": "",
              "type": "uint256"
            }
          ],
          "stateMutability": "view",
          "type": "function"
        },
        {
          "inputs": [],
          "name": "Patient_ID",
          "outputs": [
            {
              "internalType": "uint256",
              "name": "",
              "type": "uint256"
            }
          ],
          "stateMutability": "view",
          "type": "function"
        },
        {
          "inputs": [
            {
              "internalType": "uint256",
              "name": "MedicationInvoiceId_",
              "type": "uint256"
            },
            {
              "internalType": "uint256",
              "name": "Drugtotalcost",
              "type": "uint256"
            }
          ],
          "name": "PaymentRequest",
          "outputs": [],
          "stateMutability": "nonpayable",
          "type": "function"
        },
        {
          "inputs": [],
          "name": "Paymentstate",
          "outputs": [
            {
              "internalType": "enum Approval.PaymentState",
              "name": "",
              "type": "uint8"
            }
          ],
          "stateMutability": "view",
          "type": "function"
        },
        {
          "inputs": [
            {
              "internalType": "address",
              "name": "",
              "type": "address"
            },
            {
              "internalType": "uint256",
              "name": "",
              "type": "uint256"
            }
          ],
          "name": "PharmaciesSelection",
          "outputs": [
            {
              "internalType": "address",
              "name": "registeredPharmacy",
              "type": "address"
            },
            {
              "internalType": "bool",
              "name": "isSelected",
              "type": "bool"
            }
          ],
          "stateMutability": "view",
          "type": "function"
        },
        {
          "inputs": [
            {
              "internalType": "address",
              "name": "Pharmacy_",
              "type": "address"
            }
          ],
          "name": "Pharmacies_Selection",
          "outputs": [],
          "stateMutability": "nonpayable",
          "type": "function"
        },
        {
          "inputs": [
            {
              "internalType": "address",
              "name": "Patient_",
              "type": "address"
            }
          ],
          "name": "PharmacyApproval",
          "outputs": [],
          "stateMutability": "nonpayable",
          "type": "function"
        },
        {
          "inputs": [
            {
              "internalType": "uint256",
              "name": "Patient_Id",
              "type": "uint256"
            },
            {
              "internalType": "uint256",
              "name": "Drug1CRN_",
              "type": "uint256"
            },
            {
              "internalType": "uint256",
              "name": "Drug2CRN_",
              "type": "uint256"
            },
            {
              "internalType": "uint256",
              "name": "Drug3CRN_",
              "type": "uint256"
            },
            {
              "internalType": "string",
              "name": "IPFShash_",
              "type": "string"
            }
          ],
          "name": "PrescriptionCreation",
          "outputs": [],
          "stateMutability": "nonpayable",
          "type": "function"
        },
        {
          "inputs": [
            {
              "internalType": "uint256",
              "name": "Patient_",
              "type": "uint256"
            },
            {
              "internalType": "uint256",
              "name": "Drug1CRN_",
              "type": "uint256"
            },
            {
              "internalType": "uint256",
              "name": "Drug2CRN_",
              "type": "uint256"
            },
            {
              "internalType": "uint256",
              "name": "Drug3CRN_",
              "type": "uint256"
            }
          ],
          "name": "RequestInsuranceApproval",
          "outputs": [],
          "stateMutability": "nonpayable",
          "type": "function"
        },
        {
          "inputs": [
            {
              "internalType": "address",
              "name": "",
              "type": "address"
            }
          ],
          "name": "selectionCounter",
          "outputs": [
            {
              "internalType": "uint256",
              "name": "",
              "type": "uint256"
            }
          ],
          "stateMutability": "view",
          "type": "function"
        }
      ],
      "devdoc": {
        "kind": "dev",
        "methods": {},
        "version": 1
      },
      "evm": {
        "bytecode": {
          "linkReferences": {},
          "object": "60806040523480156200001157600080fd5b5060405162002ed438038062002ed48339818101604052810190620000379190620000e8565b806000806101000a81548173ffffffffffffffffffffffffffffffffffffffff021916908373ffffffffffffffffffffffffffffffffffffffff160217905550506200011a565b600080fd5b600073ffffffffffffffffffffffffffffffffffffffff82169050919050565b6000620000b08262000083565b9050919050565b620000c281620000a3565b8114620000ce57600080fd5b50565b600081519050620000e281620000b7565b92915050565b6000602082840312156200010157620001006200007e565b5b60006200011184828501620000d1565b91505092915050565b612daa806200012a6000396000f3fe6080604052600436106101405760003560e01c8063696885dd116100b6578063c0c700c11161006f578063c0c700c11461042c578063ce52068c14610457578063ce65f4c314610480578063d31c172d146104a9578063d89a3143146104d4578063d8f0837b146104fd57610140565b8063696885dd1461032c5780636ff649e8146103575780637822f78e14610382578063966bb904146103ad578063af7dc4b0146103d8578063bba4ec0b1461040157610140565b806345509eef1161010857806345509eef146102095780634e3502ea146102325780634f37772014610270578063506a203b1461029b578063563e72fb146102d857806367a6885a1461030357610140565b80630ea4f4a61461014557806331b6da611461017057806338e26fd5146101995780633e773b86146101c457806343e8a405146101e0575b600080fd5b34801561015157600080fd5b5061015a610528565b6040516101679190611bb2565b60405180910390f35b34801561017c57600080fd5b5061019760048036038101906101929190611c3f565b61052e565b005b3480156101a557600080fd5b506101ae61096d565b6040516101bb9190611ce3565b60405180910390f35b6101de60048036038101906101d99190611d2a565b610980565b005b3480156101ec57600080fd5b5061020760048036038101906102029190611d57565b610b83565b005b34801561021557600080fd5b50610230600480360381019061022b9190611c3f565b610d49565b005b34801561023e57600080fd5b5061025960048036038101906102549190611d97565b6110ef565b604051610267929190611e01565b60405180910390f35b34801561027c57600080fd5b50610285611159565b6040516102929190611e43565b60405180910390f35b3480156102a757600080fd5b506102c260048036038101906102bd9190611c3f565b61115f565b6040516102cf9190611bb2565b60405180910390f35b3480156102e457600080fd5b506102ed611177565b6040516102fa9190611bb2565b60405180910390f35b34801561030f57600080fd5b5061032a60048036038101906103259190611e5e565b61117d565b005b34801561033857600080fd5b50610341611353565b60405161034e9190611f0d565b60405180910390f35b34801561036357600080fd5b5061036c611366565b6040516103799190611f70565b60405180910390f35b34801561038e57600080fd5b50610397611379565b6040516103a49190611bb2565b60405180910390f35b3480156103b957600080fd5b506103c261137f565b6040516103cf9190611bb2565b60405180910390f35b3480156103e457600080fd5b506103ff60048036038101906103fa91906120d1565b611385565b005b34801561040d57600080fd5b506104166114e5565b6040516104239190611bb2565b60405180910390f35b34801561043857600080fd5b506104416114eb565b60405161044e9190611bb2565b60405180910390f35b34801561046357600080fd5b5061047e60048036038101906104799190611d2a565b6114f1565b005b34801561048c57600080fd5b506104a760048036038101906104a29190611d2a565b6116b4565b005b3480156104b557600080fd5b506104be611873565b6040516104cb91906121b0565b60405180910390f35b3480156104e057600080fd5b506104fb60048036038101906104f691906121f0565b611886565b005b34801561050957600080fd5b50610512611b93565b60405161051f9190611bb2565b60405180910390f35b60075481565b60008054906101000a900473ffffffffffffffffffffffffffffffffffffffff1673ffffffffffffffffffffffffffffffffffffffff16630869cfbc336040518263ffffffff1660e01b81526004016105879190612243565b602060405180830381865afa1580156105a4573d6000803e3d6000fd5b505050506040513d601f19601f820116820180604052508101906105c8919061228a565b610607576040517f08c379a00000000000000000000000000000000000000000000000000000000081526004016105fe9061233a565b60405180910390fd5b6005600260003373ffffffffffffffffffffffffffffffffffffffff1673ffffffffffffffffffffffffffffffffffffffff1681526020019081526020016000205410610689576040517f08c379a0000000000000000000000000000000000000000000000000000000008152600401610680906123cc565b60405180910390fd5b60008054906101000a900473ffffffffffffffffffffffffffffffffffffffff1673ffffffffffffffffffffffffffffffffffffffff166376fe8830826040518263ffffffff1660e01b81526004016106e29190612243565b602060405180830381865afa1580156106ff573d6000803e3d6000fd5b505050506040513d601f19601f82011682018060405250810190610723919061228a565b610762576040517f08c379a00000000000000000000000000000000000000000000000000000000081526004016107599061245e565b60405180910390fd5b600160003373ffffffffffffffffffffffffffffffffffffffff1673ffffffffffffffffffffffffffffffffffffffff16815260200190815260200160002060405180604001604052808373ffffffffffffffffffffffffffffffffffffffff168152602001600115158152509080600181540180825580915050600190039060005260206000200160009091909190915060008201518160000160006101000a81548173ffffffffffffffffffffffffffffffffffffffff021916908373ffffffffffffffffffffffffffffffffffffffff16021790555060208201518160000160146101000a81548160ff0219169083151502179055505050600260003373ffffffffffffffffffffffffffffffffffffffff1673ffffffffffffffffffffffffffffffffffffffff16815260200190815260200160002060008154809291906108ad906124ad565b91905055506000600460006101000a81548160ff021916908360018111156108d8576108d7611c6c565b5b02179055503373ffffffffffffffffffffffffffffffffffffffff167f7b59afda29a5bfd5cfbda40bd44f73875110554151821dea305808f96d4aa710600260003373ffffffffffffffffffffffffffffffffffffffff1673ffffffffffffffffffffffffffffffffffffffff168152602001908152602001600020546040516109629190611bb2565b60405180910390a250565b600460029054906101000a900460ff1681565b60008054906101000a900473ffffffffffffffffffffffffffffffffffffffff1673ffffffffffffffffffffffffffffffffffffffff1663b6f28a6c336040518263ffffffff1660e01b81526004016109d99190612243565b602060405180830381865afa1580156109f6573d6000803e3d6000fd5b505050506040513d601f19601f82011682018060405250810190610a1a919061228a565b610a59576040517f08c379a0000000000000000000000000000000000000000000000000000000008152600401610a5090612567565b60405180910390fd5b60006001811115610a6d57610a6c611c6c565b5b600460039054906101000a900460ff166001811115610a8f57610a8e611c6c565b5b14610acf576040517f08c379a0000000000000000000000000000000000000000000000000000000008152600401610ac6906125d3565b60405180910390fd5b600a543414610b13576040517f08c379a0000000000000000000000000000000000000000000000000000000008152600401610b0a90612665565b60405180910390fd5b806009819055506001600460036101000a81548160ff02191690836001811115610b4057610b3f611c6c565b5b02179055507ff42cf8c29487b42c009006cba2a2a0ca0388229f3183e6e957e0a0b163585cb433600954604051610b78929190612685565b60405180910390a150565b60008054906101000a900473ffffffffffffffffffffffffffffffffffffffff1673ffffffffffffffffffffffffffffffffffffffff166376fe8830336040518263ffffffff1660e01b8152600401610bdc9190612243565b602060405180830381865afa158015610bf9573d6000803e3d6000fd5b505050506040513d601f19601f82011682018060405250810190610c1d919061228a565b610c5c576040517f08c379a0000000000000000000000000000000000000000000000000000000008152600401610c5390612720565b60405180910390fd5b600180811115610c6f57610c6e611c6c565b5b600460029054906101000a900460ff166001811115610c9157610c90611c6c565b5b14610cd1576040517f08c379a0000000000000000000000000000000000000000000000000000000008152600401610cc89061278c565b60405180910390fd5b8160098190555080600a819055506000600460036101000a81548160ff02191690836001811115610d0557610d04611c6c565b5b02179055507f4a0353366c54503c4eb4d024baf56134b0a62137ed7b5f688a205cb8ec34758f33600954604051610d3d929190612685565b60405180910390a15050565b60008054906101000a900473ffffffffffffffffffffffffffffffffffffffff1673ffffffffffffffffffffffffffffffffffffffff166376fe8830336040518263ffffffff1660e01b8152600401610da29190612243565b602060405180830381865afa158015610dbf573d6000803e3d6000fd5b505050506040513d601f19601f82011682018060405250810190610de3919061228a565b610e22576040517f08c379a0000000000000000000000000000000000000000000000000000000008152600401610e1990612720565b60405180910390fd5b60006001811115610e3657610e35611c6c565b5b600460009054906101000a900460ff166001811115610e5857610e57611c6c565b5b14610e98576040517f08c379a0000000000000000000000000000000000000000000000000000000008152600401610e8f906127f8565b60405180910390fd5b60005b600260008373ffffffffffffffffffffffffffffffffffffffff1673ffffffffffffffffffffffffffffffffffffffff1681526020019081526020016000205481101561109b573373ffffffffffffffffffffffffffffffffffffffff16600160008473ffffffffffffffffffffffffffffffffffffffff1673ffffffffffffffffffffffffffffffffffffffff1681526020019081526020016000208281548110610f4a57610f49612818565b5b9060005260206000200160000160009054906101000a900473ffffffffffffffffffffffffffffffffffffffff1673ffffffffffffffffffffffffffffffffffffffff161480156110035750600160008373ffffffffffffffffffffffffffffffffffffffff1673ffffffffffffffffffffffffffffffffffffffff1681526020019081526020016000208181548110610fe757610fe6612818565b5b9060005260206000200160000160149054906101000a900460ff165b15611088576001600460006101000a81548160ff0219169083600181111561102e5761102d611c6c565b5b02179055503373ffffffffffffffffffffffffffffffffffffffff167f77675d0cc0cf9cb5a83c62dc54a7dff07a2a04cbbb7981790287cba2483111e0600160405161107a919061288c565b60405180910390a2506110ec565b8080611093906124ad565b915050610e9b565b503373ffffffffffffffffffffffffffffffffffffffff167f77675d0cc0cf9cb5a83c62dc54a7dff07a2a04cbbb7981790287cba2483111e060006040516110e391906128e2565b60405180910390a25b50565b6001602052816000526040600020818154811061110b57600080fd5b90600052602060002001600091509150508060000160009054906101000a900473ffffffffffffffffffffffffffffffffffffffff16908060000160149054906101000a900460ff16905082565b60035481565b60026020528060005260406000206000915090505481565b60085481565b60008054906101000a900473ffffffffffffffffffffffffffffffffffffffff1673ffffffffffffffffffffffffffffffffffffffff166376fe8830336040518263ffffffff1660e01b81526004016111d69190612243565b602060405180830381865afa1580156111f3573d6000803e3d6000fd5b505050506040513d601f19601f82011682018060405250810190611217919061228a565b611256576040517f08c379a000000000000000000000000000000000000000000000000000000000815260040161124d90612720565b60405180910390fd5b60018081111561126957611268611c6c565b5b600460009054906101000a900460ff16600181111561128b5761128a611c6c565b5b146112cb576040517f08c379a00000000000000000000000000000000000000000000000000000000081526004016112c290612949565b60405180910390fd5b836005819055508260068190555081600781905550806008819055506000600460016101000a81548160ff0219169083600281111561130d5761130c611c6c565b5b02179055507fb41d913fb1be755b93e5ce1bc7590d0ee8a8fb559da8c660ebea83eff14ba90733600554604051611345929190612685565b60405180910390a150505050565b600460009054906101000a900460ff1681565b600460039054906101000a900460ff1681565b60095481565b60065481565b60008054906101000a900473ffffffffffffffffffffffffffffffffffffffff1673ffffffffffffffffffffffffffffffffffffffff1663e669845a336040518263ffffffff1660e01b81526004016113de9190612243565b602060405180830381865afa1580156113fb573d6000803e3d6000fd5b505050506040513d601f19601f8201168201806040525081019061141f919061228a565b61145e576040517f08c379a0000000000000000000000000000000000000000000000000000000008152600401611455906129db565b60405180910390fd5b846005819055508360068190555082600781905550816008819055508061148490612a38565b6003819055503373ffffffffffffffffffffffffffffffffffffffff167f9c8ffd8bc490f9b729f31506b970a7187fbeb3f448e3917020243a49852ec28c6005546003546040516114d6929190612a9f565b60405180910390a25050505050565b600a5481565b600b5481565b60008054906101000a900473ffffffffffffffffffffffffffffffffffffffff1673ffffffffffffffffffffffffffffffffffffffff16630869cfbc336040518263ffffffff1660e01b815260040161154a9190612243565b602060405180830381865afa158015611567573d6000803e3d6000fd5b505050506040513d601f19601f8201168201806040525081019061158b919061228a565b6115ca576040517f08c379a00000000000000000000000000000000000000000000000000000000081526004016115c19061233a565b60405180910390fd5b600060018111156115de576115dd611c6c565b5b600460029054906101000a900460ff166001811115611600576115ff611c6c565b5b14611640576040517f08c379a000000000000000000000000000000000000000000000000000000000815260040161163790612b14565b60405180910390fd5b806005819055506001600460026101000a81548160ff0219169083600181111561166d5761166c611c6c565b5b02179055507f9dfdcd2f0b2546e2dd28ec0474733be6e9c7d7eb650d08223f9e1e6fa08d5638336005546003546040516116a993929190612b34565b60405180910390a150565b60008054906101000a900473ffffffffffffffffffffffffffffffffffffffff1673ffffffffffffffffffffffffffffffffffffffff166376fe8830336040518263ffffffff1660e01b815260040161170d9190612243565b602060405180830381865afa15801561172a573d6000803e3d6000fd5b505050506040513d601f19601f8201168201806040525081019061174e919061228a565b61178d576040517f08c379a000000000000000000000000000000000000000000000000000000000815260040161178490612720565b60405180910390fd5b600160028111156117a1576117a0611c6c565b5b600460019054906101000a900460ff1660028111156117c3576117c2611c6c565b5b14611803576040517f08c379a00000000000000000000000000000000000000000000000000000000081526004016117fa90612bb7565b60405180910390fd5b806005819055506000600460026101000a81548160ff021916908360018111156118305761182f611c6c565b5b02179055507f4403b0e261e570e12359c3931b2ee7f2b729f5a1d24b8b3dd005ebffc14bbde133600554604051611868929190612685565b60405180910390a150565b600460019054906101000a900460ff1681565b60008054906101000a900473ffffffffffffffffffffffffffffffffffffffff1673ffffffffffffffffffffffffffffffffffffffff1663b6f28a6c336040518263ffffffff1660e01b81526004016118df9190612243565b602060405180830381865afa1580156118fc573d6000803e3d6000fd5b505050506040513d601f19601f82011682018060405250810190611920919061228a565b61195f576040517f08c379a000000000000000000000000000000000000000000000000000000000815260040161195690612567565b60405180910390fd5b60008054906101000a900473ffffffffffffffffffffffffffffffffffffffff1673ffffffffffffffffffffffffffffffffffffffff166376fe8830836040518263ffffffff1660e01b81526004016119b89190612243565b602060405180830381865afa1580156119d5573d6000803e3d6000fd5b505050506040513d601f19601f820116820180604052508101906119f9919061228a565b611a38576040517f08c379a0000000000000000000000000000000000000000000000000000000008152600401611a2f90612c23565b60405180910390fd5b60006002811115611a4c57611a4b611c6c565b5b600460019054906101000a900460ff166002811115611a6e57611a6d611c6c565b5b14611aae576040517f08c379a0000000000000000000000000000000000000000000000000000000008152600401611aa590612c8f565b60405180910390fd5b8060058190555060016002811115611ac957611ac8611c6c565b5b836002811115611adc57611adb611c6c565b5b03611b22577f5db987a84e8b2c66f424d7316c722a7a0a15c7469512c3b343f8792ecb8d965e33600160055485604051611b199493929190612caf565b60405180910390a15b600280811115611b3557611b34611c6c565b5b836002811115611b4857611b47611c6c565b5b03611b8e577f016474a9fa5f6b36d601fb725a0b6f3c2a1d006f12b8a728b593bb1481058d7533600260055485604051611b859493929190612d2f565b60405180910390a15b505050565b60055481565b6000819050919050565b611bac81611b99565b82525050565b6000602082019050611bc76000830184611ba3565b92915050565b6000604051905090565b600080fd5b600080fd5b600073ffffffffffffffffffffffffffffffffffffffff82169050919050565b6000611c0c82611be1565b9050919050565b611c1c81611c01565b8114611c2757600080fd5b50565b600081359050611c3981611c13565b92915050565b600060208284031215611c5557611c54611bd7565b5b6000611c6384828501611c2a565b91505092915050565b7f4e487b7100000000000000000000000000000000000000000000000000000000600052602160045260246000fd5b60028110611cac57611cab611c6c565b5b50565b6000819050611cbd82611c9b565b919050565b6000611ccd82611caf565b9050919050565b611cdd81611cc2565b82525050565b6000602082019050611cf86000830184611cd4565b92915050565b611d0781611b99565b8114611d1257600080fd5b50565b600081359050611d2481611cfe565b92915050565b600060208284031215611d4057611d3f611bd7565b5b6000611d4e84828501611d15565b91505092915050565b60008060408385031215611d6e57611d6d611bd7565b5b6000611d7c85828601611d15565b9250506020611d8d85828601611d15565b9150509250929050565b60008060408385031215611dae57611dad611bd7565b5b6000611dbc85828601611c2a565b9250506020611dcd85828601611d15565b9150509250929050565b611de081611c01565b82525050565b60008115159050919050565b611dfb81611de6565b82525050565b6000604082019050611e166000830185611dd7565b611e236020830184611df2565b9392505050565b6000819050919050565b611e3d81611e2a565b82525050565b6000602082019050611e586000830184611e34565b92915050565b60008060008060808587031215611e7857611e77611bd7565b5b6000611e8687828801611d15565b9450506020611e9787828801611d15565b9350506040611ea887828801611d15565b9250506060611eb987828801611d15565b91505092959194509250565b60028110611ed657611ed5611c6c565b5b50565b6000819050611ee782611ec5565b919050565b6000611ef782611ed9565b9050919050565b611f0781611eec565b82525050565b6000602082019050611f226000830184611efe565b92915050565b60028110611f3957611f38611c6c565b5b50565b6000819050611f4a82611f28565b919050565b6000611f5a82611f3c565b9050919050565b611f6a81611f4f565b82525050565b6000602082019050611f856000830184611f61565b92915050565b600080fd5b600080fd5b6000601f19601f8301169050919050565b7f4e487b7100000000000000000000000000000000000000000000000000000000600052604160045260246000fd5b611fde82611f95565b810181811067ffffffffffffffff82111715611ffd57611ffc611fa6565b5b80604052505050565b6000612010611bcd565b905061201c8282611fd5565b919050565b600067ffffffffffffffff82111561203c5761203b611fa6565b5b61204582611f95565b9050602081019050919050565b82818337600083830152505050565b600061207461206f84612021565b612006565b9050828152602081018484840111156120905761208f611f90565b5b61209b848285612052565b509392505050565b600082601f8301126120b8576120b7611f8b565b5b81356120c8848260208601612061565b91505092915050565b600080600080600060a086880312156120ed576120ec611bd7565b5b60006120fb88828901611d15565b955050602061210c88828901611d15565b945050604061211d88828901611d15565b935050606061212e88828901611d15565b925050608086013567ffffffffffffffff81111561214f5761214e611bdc565b5b61215b888289016120a3565b9150509295509295909350565b6003811061217957612178611c6c565b5b50565b600081905061218a82612168565b919050565b600061219a8261217c565b9050919050565b6121aa8161218f565b82525050565b60006020820190506121c560008301846121a1565b92915050565b600381106121d857600080fd5b50565b6000813590506121ea816121cb565b92915050565b60008060006060848603121561220957612208611bd7565b5b6000612217868287016121db565b935050602061222886828701611c2a565b925050604061223986828701611d15565b9150509250925092565b60006020820190506122586000830184611dd7565b92915050565b61226781611de6565b811461227257600080fd5b50565b6000815190506122848161225e565b92915050565b6000602082840312156122a05761229f611bd7565b5b60006122ae84828501612275565b91505092915050565b600082825260208201905092915050565b7f4f6e6c792050617469656e7420697320616c6c6f77656420746f2073656c656360008201527f7420706861726d61636965730000000000000000000000000000000000000000602082015250565b6000612324602c836122b7565b915061232f826122c8565b604082019050919050565b6000602082019050818103600083015261235381612317565b9050919050565b7f596f752063616e6e6f742073656c656374206d6f7265207468616e203520506860008201527f61726d6163696573000000000000000000000000000000000000000000000000602082015250565b60006123b66028836122b7565b91506123c18261235a565b604082019050919050565b600060208201905081810360008301526123e5816123a9565b9050919050565b7f4f6e6c79207265676973746572656420506861726d61636965732063616e206260008201527f652073656c656374656400000000000000000000000000000000000000000000602082015250565b6000612448602a836122b7565b9150612453826123ec565b604082019050919050565b600060208201905081810360008301526124778161243b565b9050919050565b7f4e487b7100000000000000000000000000000000000000000000000000000000600052601160045260246000fd5b60006124b882611b99565b91507fffffffffffffffffffffffffffffffffffffffffffffffffffffffffffffffff82036124ea576124e961247e565b5b600182019050919050565b7f4f6e6c7920496e737572616e636520636f6d70616e792063616e2063616c6c2060008201527f746869732066756e6374696f6e00000000000000000000000000000000000000602082015250565b6000612551602d836122b7565b915061255c826124f5565b604082019050919050565b6000602082019050818103600083015261258081612544565b9050919050565b7f43616e277420636c61696d207061796d656e7400000000000000000000000000600082015250565b60006125bd6013836122b7565b91506125c882612587565b602082019050919050565b600060208201905081810360008301526125ec816125b0565b9050919050565b7f5061696420616d6f756e7420646f6573206e6f74206d6174636820746865206360008201527f6c61696d00000000000000000000000000000000000000000000000000000000602082015250565b600061264f6024836122b7565b915061265a826125f3565b604082019050919050565b6000602082019050818103600083015261267e81612642565b9050919050565b600060408201905061269a6000830185611dd7565b6126a76020830184611ba3565b9392505050565b7f4f6e6c79207265676973746572656420706861726d61637920697320616c6c6f60008201527f7765640000000000000000000000000000000000000000000000000000000000602082015250565b600061270a6023836122b7565b9150612715826126ae565b604082019050919050565b60006020820190508181036000830152612739816126fd565b9050919050565b7f576169742074696c6c206d65646963696e6520697320636f6c6c656374656400600082015250565b6000612776601f836122b7565b915061278182612740565b602082019050919050565b600060208201905081810360008301526127a581612769565b9050919050565b7f5265717565737420697320616c72656164792070726f63657373656400000000600082015250565b60006127e2601c836122b7565b91506127ed826127ac565b602082019050919050565b60006020820190508181036000830152612811816127d5565b9050919050565b7f4e487b7100000000000000000000000000000000000000000000000000000000600052603260045260246000fd5b6000819050919050565b6000819050919050565b600061287661287161286c84612847565b612851565b611b99565b9050919050565b6128868161285b565b82525050565b60006020820190506128a1600083018461287d565b92915050565b6000819050919050565b60006128cc6128c76128c2846128a7565b612851565b611b99565b9050919050565b6128dc816128b1565b82525050565b60006020820190506128f760008301846128d3565b92915050565b7f506861726d61637920617070726f76616c207265717569726564000000000000600082015250565b6000612933601a836122b7565b915061293e826128fd565b602082019050919050565b6000602082019050818103600083015261296281612926565b9050919050565b7f4f6e6c792050687973696369616e2063616e206372656174652050726573637260008201527f697074696f6e0000000000000000000000000000000000000000000000000000602082015250565b60006129c56026836122b7565b91506129d082612969565b604082019050919050565b600060208201905081810360008301526129f4816129b8565b9050919050565b600081519050919050565b6000819050602082019050919050565b6000612a228251611e2a565b80915050919050565b600082821b905092915050565b6000612a43826129fb565b82612a4d84612a06565b9050612a5881612a16565b92506020821015612a9857612a937fffffffffffffffffffffffffffffffffffffffffffffffffffffffffffffffff83602003600802612a2b565b831692505b5050919050565b6000604082019050612ab46000830185611ba3565b612ac16020830184611e34565b9392505050565b7f4e6f742072656164792c2074727920616761696e206c61746572000000000000600082015250565b6000612afe601a836122b7565b9150612b0982612ac8565b602082019050919050565b60006020820190508181036000830152612b2d81612af1565b9050919050565b6000606082019050612b496000830186611dd7565b612b566020830185611ba3565b612b636040830184611e34565b949350505050565b7f436c61696d2069732072656a6563746564000000000000000000000000000000600082015250565b6000612ba16011836122b7565b9150612bac82612b6b565b602082019050919050565b60006020820190508181036000830152612bd081612b94565b9050919050565b7f506861726d616379206e6f742072656769737465726564000000000000000000600082015250565b6000612c0d6017836122b7565b9150612c1882612bd7565b602082019050919050565b60006020820190508181036000830152612c3c81612c00565b9050919050565b7f5265717565737420616c72656164792070726f63657373656400000000000000600082015250565b6000612c796019836122b7565b9150612c8482612c43565b602082019050919050565b60006020820190508181036000830152612ca881612c6c565b9050919050565b6000608082019050612cc46000830187611dd7565b612cd1602083018661287d565b612cde6040830185611ba3565b612ceb6060830184611dd7565b95945050505050565b6000819050919050565b6000612d19612d14612d0f84612cf4565b612851565b611b99565b9050919050565b612d2981612cfe565b82525050565b6000608082019050612d446000830187611dd7565b612d516020830186612d20565b612d5e6040830185611ba3565b612d6b6060830184611dd7565b9594505050505056fea2646970667358221220dd0d243ee1f332f9fe5a27ecbe7a77ac2183dfb70c65d94c8b810a1418edfcf864736f6c634300080f0033",
          "opcodes": "PUSH1 0x80 PUSH1 0x40 MSTORE CALLVALUE DUP1 ISZERO PUSH3 0x11 JUMPI PUSH1 0x0 DUP1 REVERT JUMPDEST POP PUSH1 0x40 MLOAD PUSH3 0x2ED4 CODESIZE SUB DUP1 PUSH3 0x2ED4 DUP4 CODECOPY DUP2 DUP2 ADD PUSH1 0x40 MSTORE DUP2 ADD SWAP1 PUSH3 0x37 SWAP2 SWAP1 PUSH3 0xE8 JUMP JUMPDEST DUP1 PUSH1 0x0 DUP1 PUSH2 0x100 EXP DUP2 SLOAD DUP2 PUSH20 0xFFFFFFFFFFFFFFFFFFFFFFFFFFFFFFFFFFFFFFFF MUL NOT AND SWAP1 DUP4 PUSH20 0xFFFFFFFFFFFFFFFFFFFFFFFFFFFFFFFFFFFFFFFF AND MUL OR SWAP1 SSTORE POP POP PUSH3 0x11A JUMP JUMPDEST PUSH1 0x0 DUP1 REVERT JUMPDEST PUSH1 0x0 PUSH20 0xFFFFFFFFFFFFFFFFFFFFFFFFFFFFFFFFFFFFFFFF DUP3 AND SWAP1 POP SWAP2 SWAP1 POP JUMP JUMPDEST PUSH1 0x0 PUSH3 0xB0 DUP3 PUSH3 0x83 JUMP JUMPDEST SWAP1 POP SWAP2 SWAP1 POP JUMP JUMPDEST PUSH3 0xC2 DUP2 PUSH3 0xA3 JUMP JUMPDEST DUP2 EQ PUSH3 0xCE JUMPI PUSH1 0x0 DUP1 REVERT JUMPDEST POP JUMP JUMPDEST PUSH1 0x0 DUP2 MLOAD SWAP1 POP PUSH3 0xE2 DUP2 PUSH3 0xB7 JUMP JUMPDEST SWAP3 SWAP2 POP POP JUMP JUMPDEST PUSH1 0x0 PUSH1 0x20 DUP3 DUP5 SUB SLT ISZERO PUSH3 0x101 JUMPI PUSH3 0x100 PUSH3 0x7E JUMP JUMPDEST JUMPDEST PUSH1 0x0 PUSH3 0x111 DUP5 DUP3 DUP6 ADD PUSH3 0xD1 JUMP JUMPDEST SWAP2 POP POP SWAP3 SWAP2 POP POP JUMP JUMPDEST PUSH2 0x2DAA DUP1 PUSH3 0x12A PUSH1 0x0 CODECOPY PUSH1 0x0 RETURN INVALID PUSH1 0x80 PUSH1 0x40 MSTORE PUSH1 0x4 CALLDATASIZE LT PUSH2 0x140 JUMPI PUSH1 0x0 CALLDATALOAD PUSH1 0xE0 SHR DUP1 PUSH4 0x696885DD GT PUSH2 0xB6 JUMPI DUP1 PUSH4 0xC0C700C1 GT PUSH2 0x6F JUMPI DUP1 PUSH4 0xC0C700C1 EQ PUSH2 0x42C JUMPI DUP1 PUSH4 0xCE52068C EQ PUSH2 0x457 JUMPI DUP1 PUSH4 0xCE65F4C3 EQ PUSH2 0x480 JUMPI DUP1 PUSH4 0xD31C172D EQ PUSH2 0x4A9 JUMPI DUP1 PUSH4 0xD89A3143 EQ PUSH2 0x4D4 JUMPI DUP1 PUSH4 0xD8F0837B EQ PUSH2 0x4FD JUMPI PUSH2 0x140 JUMP JUMPDEST DUP1 PUSH4 0x696885DD EQ PUSH2 0x32C JUMPI DUP1 PUSH4 0x6FF649E8 EQ PUSH2 0x357 JUMPI DUP1 PUSH4 0x7822F78E EQ PUSH2 0x382 JUMPI DUP1 PUSH4 0x966BB904 EQ PUSH2 0x3AD JUMPI DUP1 PUSH4 0xAF7DC4B0 EQ PUSH2 0x3D8 JUMPI DUP1 PUSH4 0xBBA4EC0B EQ PUSH2 0x401 JUMPI PUSH2 0x140 JUMP JUMPDEST DUP1 PUSH4 0x45509EEF GT PUSH2 0x108 JUMPI DUP1 PUSH4 0x45509EEF EQ PUSH2 0x209 JUMPI DUP1 PUSH4 0x4E3502EA EQ PUSH2 0x232 JUMPI DUP1 PUSH4 0x4F377720 EQ PUSH2 0x270 JUMPI DUP1 PUSH4 0x506A203B EQ PUSH2 0x29B JUMPI DUP1 PUSH4 0x563E72FB EQ PUSH2 0x2D8 JUMPI DUP1 PUSH4 0x67A6885A EQ PUSH2 0x303 JUMPI PUSH2 0x140 JUMP JUMPDEST DUP1 PUSH4 0xEA4F4A6 EQ PUSH2 0x145 JUMPI DUP1 PUSH4 0x31B6DA61 EQ PUSH2 0x170 JUMPI DUP1 PUSH4 0x38E26FD5 EQ PUSH2 0x199 JUMPI DUP1 PUSH4 0x3E773B86 EQ PUSH2 0x1C4 JUMPI DUP1 PUSH4 0x43E8A405 EQ PUSH2 0x1E0 JUMPI JUMPDEST PUSH1 0x0 DUP1 REVERT JUMPDEST CALLVALUE DUP1 ISZERO PUSH2 0x151 JUMPI PUSH1 0x0 DUP1 REVERT JUMPDEST POP PUSH2 0x15A PUSH2 0x528 JUMP JUMPDEST PUSH1 0x40 MLOAD PUSH2 0x167 SWAP2 SWAP1 PUSH2 0x1BB2 JUMP JUMPDEST PUSH1 0x40 MLOAD DUP1 SWAP2 SUB SWAP1 RETURN JUMPDEST CALLVALUE DUP1 ISZERO PUSH2 0x17C JUMPI PUSH1 0x0 DUP1 REVERT JUMPDEST POP PUSH2 0x197 PUSH1 0x4 DUP1 CALLDATASIZE SUB DUP2 ADD SWAP1 PUSH2 0x192 SWAP2 SWAP1 PUSH2 0x1C3F JUMP JUMPDEST PUSH2 0x52E JUMP JUMPDEST STOP JUMPDEST CALLVALUE DUP1 ISZERO PUSH2 0x1A5 JUMPI PUSH1 0x0 DUP1 REVERT JUMPDEST POP PUSH2 0x1AE PUSH2 0x96D JUMP JUMPDEST PUSH1 0x40 MLOAD PUSH2 0x1BB SWAP2 SWAP1 PUSH2 0x1CE3 JUMP JUMPDEST PUSH1 0x40 MLOAD DUP1 SWAP2 SUB SWAP1 RETURN JUMPDEST PUSH2 0x1DE PUSH1 0x4 DUP1 CALLDATASIZE SUB DUP2 ADD SWAP1 PUSH2 0x1D9 SWAP2 SWAP1 PUSH2 0x1D2A JUMP JUMPDEST PUSH2 0x980 JUMP JUMPDEST STOP JUMPDEST CALLVALUE DUP1 ISZERO PUSH2 0x1EC JUMPI PUSH1 0x0 DUP1 REVERT JUMPDEST POP PUSH2 0x207 PUSH1 0x4 DUP1 CALLDATASIZE SUB DUP2 ADD SWAP1 PUSH2 0x202 SWAP2 SWAP1 PUSH2 0x1D57 JUMP JUMPDEST PUSH2 0xB83 JUMP JUMPDEST STOP JUMPDEST CALLVALUE DUP1 ISZERO PUSH2 0x215 JUMPI PUSH1 0x0 DUP1 REVERT JUMPDEST POP PUSH2 0x230 PUSH1 0x4 DUP1 CALLDATASIZE SUB DUP2 ADD SWAP1 PUSH2 0x22B SWAP2 SWAP1 PUSH2 0x1C3F JUMP JUMPDEST PUSH2 0xD49 JUMP JUMPDEST STOP JUMPDEST CALLVALUE DUP1 ISZERO PUSH2 0x23E JUMPI PUSH1 0x0 DUP1 REVERT JUMPDEST POP PUSH2 0x259 PUSH1 0x4 DUP1 CALLDATASIZE SUB DUP2 ADD SWAP1 PUSH2 0x254 SWAP2 SWAP1 PUSH2 0x1D97 JUMP JUMPDEST PUSH2 0x10EF JUMP JUMPDEST PUSH1 0x40 MLOAD PUSH2 0x267 SWAP3 SWAP2 SWAP1 PUSH2 0x1E01 JUMP JUMPDEST PUSH1 0x40 MLOAD DUP1 SWAP2 SUB SWAP1 RETURN JUMPDEST CALLVALUE DUP1 ISZERO PUSH2 0x27C JUMPI PUSH1 0x0 DUP1 REVERT JUMPDEST POP PUSH2 0x285 PUSH2 0x1159 JUMP JUMPDEST PUSH1 0x40 MLOAD PUSH2 0x292 SWAP2 SWAP1 PUSH2 0x1E43 JUMP JUMPDEST PUSH1 0x40 MLOAD DUP1 SWAP2 SUB SWAP1 RETURN JUMPDEST CALLVALUE DUP1 ISZERO PUSH2 0x2A7 JUMPI PUSH1 0x0 DUP1 REVERT JUMPDEST POP PUSH2 0x2C2 PUSH1 0x4 DUP1 CALLDATASIZE SUB DUP2 ADD SWAP1 PUSH2 0x2BD SWAP2 SWAP1 PUSH2 0x1C3F JUMP JUMPDEST PUSH2 0x115F JUMP JUMPDEST PUSH1 0x40 MLOAD PUSH2 0x2CF SWAP2 SWAP1 PUSH2 0x1BB2 JUMP JUMPDEST PUSH1 0x40 MLOAD DUP1 SWAP2 SUB SWAP1 RETURN JUMPDEST CALLVALUE DUP1 ISZERO PUSH2 0x2E4 JUMPI PUSH1 0x0 DUP1 REVERT JUMPDEST POP PUSH2 0x2ED PUSH2 0x1177 JUMP JUMPDEST PUSH1 0x40 MLOAD PUSH2 0x2FA SWAP2 SWAP1 PUSH2 0x1BB2 JUMP JUMPDEST PUSH1 0x40 MLOAD DUP1 SWAP2 SUB SWAP1 RETURN JUMPDEST CALLVALUE DUP1 ISZERO PUSH2 0x30F JUMPI PUSH1 0x0 DUP1 REVERT JUMPDEST POP PUSH2 0x32A PUSH1 0x4 DUP1 CALLDATASIZE SUB DUP2 ADD SWAP1 PUSH2 0x325 SWAP2 SWAP1 PUSH2 0x1E5E JUMP JUMPDEST PUSH2 0x117D JUMP JUMPDEST STOP JUMPDEST CALLVALUE DUP1 ISZERO PUSH2 0x338 JUMPI PUSH1 0x0 DUP1 REVERT JUMPDEST POP PUSH2 0x341 PUSH2 0x1353 JUMP JUMPDEST PUSH1 0x40 MLOAD PUSH2 0x34E SWAP2 SWAP1 PUSH2 0x1F0D JUMP JUMPDEST PUSH1 0x40 MLOAD DUP1 SWAP2 SUB SWAP1 RETURN JUMPDEST CALLVALUE DUP1 ISZERO PUSH2 0x363 JUMPI PUSH1 0x0 DUP1 REVERT JUMPDEST POP PUSH2 0x36C PUSH2 0x1366 JUMP JUMPDEST PUSH1 0x40 MLOAD PUSH2 0x379 SWAP2 SWAP1 PUSH2 0x1F70 JUMP JUMPDEST PUSH1 0x40 MLOAD DUP1 SWAP2 SUB SWAP1 RETURN JUMPDEST CALLVALUE DUP1 ISZERO PUSH2 0x38E JUMPI PUSH1 0x0 DUP1 REVERT JUMPDEST POP PUSH2 0x397 PUSH2 0x1379 JUMP JUMPDEST PUSH1 0x40 MLOAD PUSH2 0x3A4 SWAP2 SWAP1 PUSH2 0x1BB2 JUMP JUMPDEST PUSH1 0x40 MLOAD DUP1 SWAP2 SUB SWAP1 RETURN JUMPDEST CALLVALUE DUP1 ISZERO PUSH2 0x3B9 JUMPI PUSH1 0x0 DUP1 REVERT JUMPDEST POP PUSH2 0x3C2 PUSH2 0x137F JUMP JUMPDEST PUSH1 0x40 MLOAD PUSH2 0x3CF SWAP2 SWAP1 PUSH2 0x1BB2 JUMP JUMPDEST PUSH1 0x40 MLOAD DUP1 SWAP2 SUB SWAP1 RETURN JUMPDEST CALLVALUE DUP1 ISZERO PUSH2 0x3E4 JUMPI PUSH1 0x0 DUP1 REVERT JUMPDEST POP PUSH2 0x3FF PUSH1 0x4 DUP1 CALLDATASIZE SUB DUP2 ADD SWAP1 PUSH2 0x3FA SWAP2 SWAP1 PUSH2 0x20D1 JUMP JUMPDEST PUSH2 0x1385 JUMP JUMPDEST STOP JUMPDEST CALLVALUE DUP1 ISZERO PUSH2 0x40D JUMPI PUSH1 0x0 DUP1 REVERT JUMPDEST POP PUSH2 0x416 PUSH2 0x14E5 JUMP JUMPDEST PUSH1 0x40 MLOAD PUSH2 0x423 SWAP2 SWAP1 PUSH2 0x1BB2 JUMP JUMPDEST PUSH1 0x40 MLOAD DUP1 SWAP2 SUB SWAP1 RETURN JUMPDEST CALLVALUE DUP1 ISZERO PUSH2 0x438 JUMPI PUSH1 0x0 DUP1 REVERT JUMPDEST POP PUSH2 0x441 PUSH2 0x14EB JUMP JUMPDEST PUSH1 0x40 MLOAD PUSH2 0x44E SWAP2 SWAP1 PUSH2 0x1BB2 JUMP JUMPDEST PUSH1 0x40 MLOAD DUP1 SWAP2 SUB SWAP1 RETURN JUMPDEST CALLVALUE DUP1 ISZERO PUSH2 0x463 JUMPI PUSH1 0x0 DUP1 REVERT JUMPDEST POP PUSH2 0x47E PUSH1 0x4 DUP1 CALLDATASIZE SUB DUP2 ADD SWAP1 PUSH2 0x479 SWAP2 SWAP1 PUSH2 0x1D2A JUMP JUMPDEST PUSH2 0x14F1 JUMP JUMPDEST STOP JUMPDEST CALLVALUE DUP1 ISZERO PUSH2 0x48C JUMPI PUSH1 0x0 DUP1 REVERT JUMPDEST POP PUSH2 0x4A7 PUSH1 0x4 DUP1 CALLDATASIZE SUB DUP2 ADD SWAP1 PUSH2 0x4A2 SWAP2 SWAP1 PUSH2 0x1D2A JUMP JUMPDEST PUSH2 0x16B4 JUMP JUMPDEST STOP JUMPDEST CALLVALUE DUP1 ISZERO PUSH2 0x4B5 JUMPI PUSH1 0x0 DUP1 REVERT JUMPDEST POP PUSH2 0x4BE PUSH2 0x1873 JUMP JUMPDEST PUSH1 0x40 MLOAD PUSH2 0x4CB SWAP2 SWAP1 PUSH2 0x21B0 JUMP JUMPDEST PUSH1 0x40 MLOAD DUP1 SWAP2 SUB SWAP1 RETURN JUMPDEST CALLVALUE DUP1 ISZERO PUSH2 0x4E0 JUMPI PUSH1 0x0 DUP1 REVERT JUMPDEST POP PUSH2 0x4FB PUSH1 0x4 DUP1 CALLDATASIZE SUB DUP2 ADD SWAP1 PUSH2 0x4F6 SWAP2 SWAP1 PUSH2 0x21F0 JUMP JUMPDEST PUSH2 0x1886 JUMP JUMPDEST STOP JUMPDEST CALLVALUE DUP1 ISZERO PUSH2 0x509 JUMPI PUSH1 0x0 DUP1 REVERT JUMPDEST POP PUSH2 0x512 PUSH2 0x1B93 JUMP JUMPDEST PUSH1 0x40 MLOAD PUSH2 0x51F SWAP2 SWAP1 PUSH2 0x1BB2 JUMP JUMPDEST PUSH1 0x40 MLOAD DUP1 SWAP2 SUB SWAP1 RETURN JUMPDEST PUSH1 0x7 SLOAD DUP2 JUMP JUMPDEST PUSH1 0x0 DUP1 SLOAD SWAP1 PUSH2 0x100 EXP SWAP1 DIV PUSH20 0xFFFFFFFFFFFFFFFFFFFFFFFFFFFFFFFFFFFFFFFF AND PUSH20 0xFFFFFFFFFFFFFFFFFFFFFFFFFFFFFFFFFFFFFFFF AND PUSH4 0x869CFBC CALLER PUSH1 0x40 MLOAD DUP3 PUSH4 0xFFFFFFFF AND PUSH1 0xE0 SHL DUP2 MSTORE PUSH1 0x4 ADD PUSH2 0x587 SWAP2 SWAP1 PUSH2 0x2243 JUMP JUMPDEST PUSH1 0x20 PUSH1 0x40 MLOAD DUP1 DUP4 SUB DUP2 DUP7 GAS STATICCALL ISZERO DUP1 ISZERO PUSH2 0x5A4 JUMPI RETURNDATASIZE PUSH1 0x0 DUP1 RETURNDATACOPY RETURNDATASIZE PUSH1 0x0 REVERT JUMPDEST POP POP POP POP PUSH1 0x40 MLOAD RETURNDATASIZE PUSH1 0x1F NOT PUSH1 0x1F DUP3 ADD AND DUP3 ADD DUP1 PUSH1 0x40 MSTORE POP DUP2 ADD SWAP1 PUSH2 0x5C8 SWAP2 SWAP1 PUSH2 0x228A JUMP JUMPDEST PUSH2 0x607 JUMPI PUSH1 0x40 MLOAD PUSH32 0x8C379A000000000000000000000000000000000000000000000000000000000 DUP2 MSTORE PUSH1 0x4 ADD PUSH2 0x5FE SWAP1 PUSH2 0x233A JUMP JUMPDEST PUSH1 0x40 MLOAD DUP1 SWAP2 SUB SWAP1 REVERT JUMPDEST PUSH1 0x5 PUSH1 0x2 PUSH1 0x0 CALLER PUSH20 0xFFFFFFFFFFFFFFFFFFFFFFFFFFFFFFFFFFFFFFFF AND PUSH20 0xFFFFFFFFFFFFFFFFFFFFFFFFFFFFFFFFFFFFFFFF AND DUP2 MSTORE PUSH1 0x20 ADD SWAP1 DUP2 MSTORE PUSH1 0x20 ADD PUSH1 0x0 KECCAK256 SLOAD LT PUSH2 0x689 JUMPI PUSH1 0x40 MLOAD PUSH32 0x8C379A000000000000000000000000000000000000000000000000000000000 DUP2 MSTORE PUSH1 0x4 ADD PUSH2 0x680 SWAP1 PUSH2 0x23CC JUMP JUMPDEST PUSH1 0x40 MLOAD DUP1 SWAP2 SUB SWAP1 REVERT JUMPDEST PUSH1 0x0 DUP1 SLOAD SWAP1 PUSH2 0x100 EXP SWAP1 DIV PUSH20 0xFFFFFFFFFFFFFFFFFFFFFFFFFFFFFFFFFFFFFFFF AND PUSH20 0xFFFFFFFFFFFFFFFFFFFFFFFFFFFFFFFFFFFFFFFF AND PUSH4 0x76FE8830 DUP3 PUSH1 0x40 MLOAD DUP3 PUSH4 0xFFFFFFFF AND PUSH1 0xE0 SHL DUP2 MSTORE PUSH1 0x4 ADD PUSH2 0x6E2 SWAP2 SWAP1 PUSH2 0x2243 JUMP JUMPDEST PUSH1 0x20 PUSH1 0x40 MLOAD DUP1 DUP4 SUB DUP2 DUP7 GAS STATICCALL ISZERO DUP1 ISZERO PUSH2 0x6FF JUMPI RETURNDATASIZE PUSH1 0x0 DUP1 RETURNDATACOPY RETURNDATASIZE PUSH1 0x0 REVERT JUMPDEST POP POP POP POP PUSH1 0x40 MLOAD RETURNDATASIZE PUSH1 0x1F NOT PUSH1 0x1F DUP3 ADD AND DUP3 ADD DUP1 PUSH1 0x40 MSTORE POP DUP2 ADD SWAP1 PUSH2 0x723 SWAP2 SWAP1 PUSH2 0x228A JUMP JUMPDEST PUSH2 0x762 JUMPI PUSH1 0x40 MLOAD PUSH32 0x8C379A000000000000000000000000000000000000000000000000000000000 DUP2 MSTORE PUSH1 0x4 ADD PUSH2 0x759 SWAP1 PUSH2 0x245E JUMP JUMPDEST PUSH1 0x40 MLOAD DUP1 SWAP2 SUB SWAP1 REVERT JUMPDEST PUSH1 0x1 PUSH1 0x0 CALLER PUSH20 0xFFFFFFFFFFFFFFFFFFFFFFFFFFFFFFFFFFFFFFFF AND PUSH20 0xFFFFFFFFFFFFFFFFFFFFFFFFFFFFFFFFFFFFFFFF AND DUP2 MSTORE PUSH1 0x20 ADD SWAP1 DUP2 MSTORE PUSH1 0x20 ADD PUSH1 0x0 KECCAK256 PUSH1 0x40 MLOAD DUP1 PUSH1 0x40 ADD PUSH1 0x40 MSTORE DUP1 DUP4 PUSH20 0xFFFFFFFFFFFFFFFFFFFFFFFFFFFFFFFFFFFFFFFF AND DUP2 MSTORE PUSH1 0x20 ADD PUSH1 0x1 ISZERO ISZERO DUP2 MSTORE POP SWAP1 DUP1 PUSH1 0x1 DUP2 SLOAD ADD DUP1 DUP3 SSTORE DUP1 SWAP2 POP POP PUSH1 0x1 SWAP1 SUB SWAP1 PUSH1 0x0 MSTORE PUSH1 0x20 PUSH1 0x0 KECCAK256 ADD PUSH1 0x0 SWAP1 SWAP2 SWAP1 SWAP2 SWAP1 SWAP2 POP PUSH1 0x0 DUP3 ADD MLOAD DUP2 PUSH1 0x0 ADD PUSH1 0x0 PUSH2 0x100 EXP DUP2 SLOAD DUP2 PUSH20 0xFFFFFFFFFFFFFFFFFFFFFFFFFFFFFFFFFFFFFFFF MUL NOT AND SWAP1 DUP4 PUSH20 0xFFFFFFFFFFFFFFFFFFFFFFFFFFFFFFFFFFFFFFFF AND MUL OR SWAP1 SSTORE POP PUSH1 0x20 DUP3 ADD MLOAD DUP2 PUSH1 0x0 ADD PUSH1 0x14 PUSH2 0x100 EXP DUP2 SLOAD DUP2 PUSH1 0xFF MUL NOT AND SWAP1 DUP4 ISZERO ISZERO MUL OR SWAP1 SSTORE POP POP POP PUSH1 0x2 PUSH1 0x0 CALLER PUSH20 0xFFFFFFFFFFFFFFFFFFFFFFFFFFFFFFFFFFFFFFFF AND PUSH20 0xFFFFFFFFFFFFFFFFFFFFFFFFFFFFFFFFFFFFFFFF AND DUP2 MSTORE PUSH1 0x20 ADD SWAP1 DUP2 MSTORE PUSH1 0x20 ADD PUSH1 0x0 KECCAK256 PUSH1 0x0 DUP2 SLOAD DUP1 SWAP3 SWAP2 SWAP1 PUSH2 0x8AD SWAP1 PUSH2 0x24AD JUMP JUMPDEST SWAP2 SWAP1 POP SSTORE POP PUSH1 0x0 PUSH1 0x4 PUSH1 0x0 PUSH2 0x100 EXP DUP2 SLOAD DUP2 PUSH1 0xFF MUL NOT AND SWAP1 DUP4 PUSH1 0x1 DUP2 GT ISZERO PUSH2 0x8D8 JUMPI PUSH2 0x8D7 PUSH2 0x1C6C JUMP JUMPDEST JUMPDEST MUL OR SWAP1 SSTORE POP CALLER PUSH20 0xFFFFFFFFFFFFFFFFFFFFFFFFFFFFFFFFFFFFFFFF AND PUSH32 0x7B59AFDA29A5BFD5CFBDA40BD44F73875110554151821DEA305808F96D4AA710 PUSH1 0x2 PUSH1 0x0 CALLER PUSH20 0xFFFFFFFFFFFFFFFFFFFFFFFFFFFFFFFFFFFFFFFF AND PUSH20 0xFFFFFFFFFFFFFFFFFFFFFFFFFFFFFFFFFFFFFFFF AND DUP2 MSTORE PUSH1 0x20 ADD SWAP1 DUP2 MSTORE PUSH1 0x20 ADD PUSH1 0x0 KECCAK256 SLOAD PUSH1 0x40 MLOAD PUSH2 0x962 SWAP2 SWAP1 PUSH2 0x1BB2 JUMP JUMPDEST PUSH1 0x40 MLOAD DUP1 SWAP2 SUB SWAP1 LOG2 POP JUMP JUMPDEST PUSH1 0x4 PUSH1 0x2 SWAP1 SLOAD SWAP1 PUSH2 0x100 EXP SWAP1 DIV PUSH1 0xFF AND DUP2 JUMP JUMPDEST PUSH1 0x0 DUP1 SLOAD SWAP1 PUSH2 0x100 EXP SWAP1 DIV PUSH20 0xFFFFFFFFFFFFFFFFFFFFFFFFFFFFFFFFFFFFFFFF AND PUSH20 0xFFFFFFFFFFFFFFFFFFFFFFFFFFFFFFFFFFFFFFFF AND PUSH4 0xB6F28A6C CALLER PUSH1 0x40 MLOAD DUP3 PUSH4 0xFFFFFFFF AND PUSH1 0xE0 SHL DUP2 MSTORE PUSH1 0x4 ADD PUSH2 0x9D9 SWAP2 SWAP1 PUSH2 0x2243 JUMP JUMPDEST PUSH1 0x20 PUSH1 0x40 MLOAD DUP1 DUP4 SUB DUP2 DUP7 GAS STATICCALL ISZERO DUP1 ISZERO PUSH2 0x9F6 JUMPI RETURNDATASIZE PUSH1 0x0 DUP1 RETURNDATACOPY RETURNDATASIZE PUSH1 0x0 REVERT JUMPDEST POP POP POP POP PUSH1 0x40 MLOAD RETURNDATASIZE PUSH1 0x1F NOT PUSH1 0x1F DUP3 ADD AND DUP3 ADD DUP1 PUSH1 0x40 MSTORE POP DUP2 ADD SWAP1 PUSH2 0xA1A SWAP2 SWAP1 PUSH2 0x228A JUMP JUMPDEST PUSH2 0xA59 JUMPI PUSH1 0x40 MLOAD PUSH32 0x8C379A000000000000000000000000000000000000000000000000000000000 DUP2 MSTORE PUSH1 0x4 ADD PUSH2 0xA50 SWAP1 PUSH2 0x2567 JUMP JUMPDEST PUSH1 0x40 MLOAD DUP1 SWAP2 SUB SWAP1 REVERT JUMPDEST PUSH1 0x0 PUSH1 0x1 DUP2 GT ISZERO PUSH2 0xA6D JUMPI PUSH2 0xA6C PUSH2 0x1C6C JUMP JUMPDEST JUMPDEST PUSH1 0x4 PUSH1 0x3 SWAP1 SLOAD SWAP1 PUSH2 0x100 EXP SWAP1 DIV PUSH1 0xFF AND PUSH1 0x1 DUP2 GT ISZERO PUSH2 0xA8F JUMPI PUSH2 0xA8E PUSH2 0x1C6C JUMP JUMPDEST JUMPDEST EQ PUSH2 0xACF JUMPI PUSH1 0x40 MLOAD PUSH32 0x8C379A000000000000000000000000000000000000000000000000000000000 DUP2 MSTORE PUSH1 0x4 ADD PUSH2 0xAC6 SWAP1 PUSH2 0x25D3 JUMP JUMPDEST PUSH1 0x40 MLOAD DUP1 SWAP2 SUB SWAP1 REVERT JUMPDEST PUSH1 0xA SLOAD CALLVALUE EQ PUSH2 0xB13 JUMPI PUSH1 0x40 MLOAD PUSH32 0x8C379A000000000000000000000000000000000000000000000000000000000 DUP2 MSTORE PUSH1 0x4 ADD PUSH2 0xB0A SWAP1 PUSH2 0x2665 JUMP JUMPDEST PUSH1 0x40 MLOAD DUP1 SWAP2 SUB SWAP1 REVERT JUMPDEST DUP1 PUSH1 0x9 DUP2 SWAP1 SSTORE POP PUSH1 0x1 PUSH1 0x4 PUSH1 0x3 PUSH2 0x100 EXP DUP2 SLOAD DUP2 PUSH1 0xFF MUL NOT AND SWAP1 DUP4 PUSH1 0x1 DUP2 GT ISZERO PUSH2 0xB40 JUMPI PUSH2 0xB3F PUSH2 0x1C6C JUMP JUMPDEST JUMPDEST MUL OR SWAP1 SSTORE POP PUSH32 0xF42CF8C29487B42C009006CBA2A2A0CA0388229F3183E6E957E0A0B163585CB4 CALLER PUSH1 0x9 SLOAD PUSH1 0x40 MLOAD PUSH2 0xB78 SWAP3 SWAP2 SWAP1 PUSH2 0x2685 JUMP JUMPDEST PUSH1 0x40 MLOAD DUP1 SWAP2 SUB SWAP1 LOG1 POP JUMP JUMPDEST PUSH1 0x0 DUP1 SLOAD SWAP1 PUSH2 0x100 EXP SWAP1 DIV PUSH20 0xFFFFFFFFFFFFFFFFFFFFFFFFFFFFFFFFFFFFFFFF AND PUSH20 0xFFFFFFFFFFFFFFFFFFFFFFFFFFFFFFFFFFFFFFFF AND PUSH4 0x76FE8830 CALLER PUSH1 0x40 MLOAD DUP3 PUSH4 0xFFFFFFFF AND PUSH1 0xE0 SHL DUP2 MSTORE PUSH1 0x4 ADD PUSH2 0xBDC SWAP2 SWAP1 PUSH2 0x2243 JUMP JUMPDEST PUSH1 0x20 PUSH1 0x40 MLOAD DUP1 DUP4 SUB DUP2 DUP7 GAS STATICCALL ISZERO DUP1 ISZERO PUSH2 0xBF9 JUMPI RETURNDATASIZE PUSH1 0x0 DUP1 RETURNDATACOPY RETURNDATASIZE PUSH1 0x0 REVERT JUMPDEST POP POP POP POP PUSH1 0x40 MLOAD RETURNDATASIZE PUSH1 0x1F NOT PUSH1 0x1F DUP3 ADD AND DUP3 ADD DUP1 PUSH1 0x40 MSTORE POP DUP2 ADD SWAP1 PUSH2 0xC1D SWAP2 SWAP1 PUSH2 0x228A JUMP JUMPDEST PUSH2 0xC5C JUMPI PUSH1 0x40 MLOAD PUSH32 0x8C379A000000000000000000000000000000000000000000000000000000000 DUP2 MSTORE PUSH1 0x4 ADD PUSH2 0xC53 SWAP1 PUSH2 0x2720 JUMP JUMPDEST PUSH1 0x40 MLOAD DUP1 SWAP2 SUB SWAP1 REVERT JUMPDEST PUSH1 0x1 DUP1 DUP2 GT ISZERO PUSH2 0xC6F JUMPI PUSH2 0xC6E PUSH2 0x1C6C JUMP JUMPDEST JUMPDEST PUSH1 0x4 PUSH1 0x2 SWAP1 SLOAD SWAP1 PUSH2 0x100 EXP SWAP1 DIV PUSH1 0xFF AND PUSH1 0x1 DUP2 GT ISZERO PUSH2 0xC91 JUMPI PUSH2 0xC90 PUSH2 0x1C6C JUMP JUMPDEST JUMPDEST EQ PUSH2 0xCD1 JUMPI PUSH1 0x40 MLOAD PUSH32 0x8C379A000000000000000000000000000000000000000000000000000000000 DUP2 MSTORE PUSH1 0x4 ADD PUSH2 0xCC8 SWAP1 PUSH2 0x278C JUMP JUMPDEST PUSH1 0x40 MLOAD DUP1 SWAP2 SUB SWAP1 REVERT JUMPDEST DUP2 PUSH1 0x9 DUP2 SWAP1 SSTORE POP DUP1 PUSH1 0xA DUP2 SWAP1 SSTORE POP PUSH1 0x0 PUSH1 0x4 PUSH1 0x3 PUSH2 0x100 EXP DUP2 SLOAD DUP2 PUSH1 0xFF MUL NOT AND SWAP1 DUP4 PUSH1 0x1 DUP2 GT ISZERO PUSH2 0xD05 JUMPI PUSH2 0xD04 PUSH2 0x1C6C JUMP JUMPDEST JUMPDEST MUL OR SWAP1 SSTORE POP PUSH32 0x4A0353366C54503C4EB4D024BAF56134B0A62137ED7B5F688A205CB8EC34758F CALLER PUSH1 0x9 SLOAD PUSH1 0x40 MLOAD PUSH2 0xD3D SWAP3 SWAP2 SWAP1 PUSH2 0x2685 JUMP JUMPDEST PUSH1 0x40 MLOAD DUP1 SWAP2 SUB SWAP1 LOG1 POP POP JUMP JUMPDEST PUSH1 0x0 DUP1 SLOAD SWAP1 PUSH2 0x100 EXP SWAP1 DIV PUSH20 0xFFFFFFFFFFFFFFFFFFFFFFFFFFFFFFFFFFFFFFFF AND PUSH20 0xFFFFFFFFFFFFFFFFFFFFFFFFFFFFFFFFFFFFFFFF AND PUSH4 0x76FE8830 CALLER PUSH1 0x40 MLOAD DUP3 PUSH4 0xFFFFFFFF AND PUSH1 0xE0 SHL DUP2 MSTORE PUSH1 0x4 ADD PUSH2 0xDA2 SWAP2 SWAP1 PUSH2 0x2243 JUMP JUMPDEST PUSH1 0x20 PUSH1 0x40 MLOAD DUP1 DUP4 SUB DUP2 DUP7 GAS STATICCALL ISZERO DUP1 ISZERO PUSH2 0xDBF JUMPI RETURNDATASIZE PUSH1 0x0 DUP1 RETURNDATACOPY RETURNDATASIZE PUSH1 0x0 REVERT JUMPDEST POP POP POP POP PUSH1 0x40 MLOAD RETURNDATASIZE PUSH1 0x1F NOT PUSH1 0x1F DUP3 ADD AND DUP3 ADD DUP1 PUSH1 0x40 MSTORE POP DUP2 ADD SWAP1 PUSH2 0xDE3 SWAP2 SWAP1 PUSH2 0x228A JUMP JUMPDEST PUSH2 0xE22 JUMPI PUSH1 0x40 MLOAD PUSH32 0x8C379A000000000000000000000000000000000000000000000000000000000 DUP2 MSTORE PUSH1 0x4 ADD PUSH2 0xE19 SWAP1 PUSH2 0x2720 JUMP JUMPDEST PUSH1 0x40 MLOAD DUP1 SWAP2 SUB SWAP1 REVERT JUMPDEST PUSH1 0x0 PUSH1 0x1 DUP2 GT ISZERO PUSH2 0xE36 JUMPI PUSH2 0xE35 PUSH2 0x1C6C JUMP JUMPDEST JUMPDEST PUSH1 0x4 PUSH1 0x0 SWAP1 SLOAD SWAP1 PUSH2 0x100 EXP SWAP1 DIV PUSH1 0xFF AND PUSH1 0x1 DUP2 GT ISZERO PUSH2 0xE58 JUMPI PUSH2 0xE57 PUSH2 0x1C6C JUMP JUMPDEST JUMPDEST EQ PUSH2 0xE98 JUMPI PUSH1 0x40 MLOAD PUSH32 0x8C379A000000000000000000000000000000000000000000000000000000000 DUP2 MSTORE PUSH1 0x4 ADD PUSH2 0xE8F SWAP1 PUSH2 0x27F8 JUMP JUMPDEST PUSH1 0x40 MLOAD DUP1 SWAP2 SUB SWAP1 REVERT JUMPDEST PUSH1 0x0 JUMPDEST PUSH1 0x2 PUSH1 0x0 DUP4 PUSH20 0xFFFFFFFFFFFFFFFFFFFFFFFFFFFFFFFFFFFFFFFF AND PUSH20 0xFFFFFFFFFFFFFFFFFFFFFFFFFFFFFFFFFFFFFFFF AND DUP2 MSTORE PUSH1 0x20 ADD SWAP1 DUP2 MSTORE PUSH1 0x20 ADD PUSH1 0x0 KECCAK256 SLOAD DUP2 LT ISZERO PUSH2 0x109B JUMPI CALLER PUSH20 0xFFFFFFFFFFFFFFFFFFFFFFFFFFFFFFFFFFFFFFFF AND PUSH1 0x1 PUSH1 0x0 DUP5 PUSH20 0xFFFFFFFFFFFFFFFFFFFFFFFFFFFFFFFFFFFFFFFF AND PUSH20 0xFFFFFFFFFFFFFFFFFFFFFFFFFFFFFFFFFFFFFFFF AND DUP2 MSTORE PUSH1 0x20 ADD SWAP1 DUP2 MSTORE PUSH1 0x20 ADD PUSH1 0x0 KECCAK256 DUP3 DUP2 SLOAD DUP2 LT PUSH2 0xF4A JUMPI PUSH2 0xF49 PUSH2 0x2818 JUMP JUMPDEST JUMPDEST SWAP1 PUSH1 0x0 MSTORE PUSH1 0x20 PUSH1 0x0 KECCAK256 ADD PUSH1 0x0 ADD PUSH1 0x0 SWAP1 SLOAD SWAP1 PUSH2 0x100 EXP SWAP1 DIV PUSH20 0xFFFFFFFFFFFFFFFFFFFFFFFFFFFFFFFFFFFFFFFF AND PUSH20 0xFFFFFFFFFFFFFFFFFFFFFFFFFFFFFFFFFFFFFFFF AND EQ DUP1 ISZERO PUSH2 0x1003 JUMPI POP PUSH1 0x1 PUSH1 0x0 DUP4 PUSH20 0xFFFFFFFFFFFFFFFFFFFFFFFFFFFFFFFFFFFFFFFF AND PUSH20 0xFFFFFFFFFFFFFFFFFFFFFFFFFFFFFFFFFFFFFFFF AND DUP2 MSTORE PUSH1 0x20 ADD SWAP1 DUP2 MSTORE PUSH1 0x20 ADD PUSH1 0x0 KECCAK256 DUP2 DUP2 SLOAD DUP2 LT PUSH2 0xFE7 JUMPI PUSH2 0xFE6 PUSH2 0x2818 JUMP JUMPDEST JUMPDEST SWAP1 PUSH1 0x0 MSTORE PUSH1 0x20 PUSH1 0x0 KECCAK256 ADD PUSH1 0x0 ADD PUSH1 0x14 SWAP1 SLOAD SWAP1 PUSH2 0x100 EXP SWAP1 DIV PUSH1 0xFF AND JUMPDEST ISZERO PUSH2 0x1088 JUMPI PUSH1 0x1 PUSH1 0x4 PUSH1 0x0 PUSH2 0x100 EXP DUP2 SLOAD DUP2 PUSH1 0xFF MUL NOT AND SWAP1 DUP4 PUSH1 0x1 DUP2 GT ISZERO PUSH2 0x102E JUMPI PUSH2 0x102D PUSH2 0x1C6C JUMP JUMPDEST JUMPDEST MUL OR SWAP1 SSTORE POP CALLER PUSH20 0xFFFFFFFFFFFFFFFFFFFFFFFFFFFFFFFFFFFFFFFF AND PUSH32 0x77675D0CC0CF9CB5A83C62DC54A7DFF07A2A04CBBB7981790287CBA2483111E0 PUSH1 0x1 PUSH1 0x40 MLOAD PUSH2 0x107A SWAP2 SWAP1 PUSH2 0x288C JUMP JUMPDEST PUSH1 0x40 MLOAD DUP1 SWAP2 SUB SWAP1 LOG2 POP PUSH2 0x10EC JUMP JUMPDEST DUP1 DUP1 PUSH2 0x1093 SWAP1 PUSH2 0x24AD JUMP JUMPDEST SWAP2 POP POP PUSH2 0xE9B JUMP JUMPDEST POP CALLER PUSH20 0xFFFFFFFFFFFFFFFFFFFFFFFFFFFFFFFFFFFFFFFF AND PUSH32 0x77675D0CC0CF9CB5A83C62DC54A7DFF07A2A04CBBB7981790287CBA2483111E0 PUSH1 0x0 PUSH1 0x40 MLOAD PUSH2 0x10E3 SWAP2 SWAP1 PUSH2 0x28E2 JUMP JUMPDEST PUSH1 0x40 MLOAD DUP1 SWAP2 SUB SWAP1 LOG2 JUMPDEST POP JUMP JUMPDEST PUSH1 0x1 PUSH1 0x20 MSTORE DUP2 PUSH1 0x0 MSTORE PUSH1 0x40 PUSH1 0x0 KECCAK256 DUP2 DUP2 SLOAD DUP2 LT PUSH2 0x110B JUMPI PUSH1 0x0 DUP1 REVERT JUMPDEST SWAP1 PUSH1 0x0 MSTORE PUSH1 0x20 PUSH1 0x0 KECCAK256 ADD PUSH1 0x0 SWAP2 POP SWAP2 POP POP DUP1 PUSH1 0x0 ADD PUSH1 0x0 SWAP1 SLOAD SWAP1 PUSH2 0x100 EXP SWAP1 DIV PUSH20 0xFFFFFFFFFFFFFFFFFFFFFFFFFFFFFFFFFFFFFFFF AND SWAP1 DUP1 PUSH1 0x0 ADD PUSH1 0x14 SWAP1 SLOAD SWAP1 PUSH2 0x100 EXP SWAP1 DIV PUSH1 0xFF AND SWAP1 POP DUP3 JUMP JUMPDEST PUSH1 0x3 SLOAD DUP2 JUMP JUMPDEST PUSH1 0x2 PUSH1 0x20 MSTORE DUP1 PUSH1 0x0 MSTORE PUSH1 0x40 PUSH1 0x0 KECCAK256 PUSH1 0x0 SWAP2 POP SWAP1 POP SLOAD DUP2 JUMP JUMPDEST PUSH1 0x8 SLOAD DUP2 JUMP JUMPDEST PUSH1 0x0 DUP1 SLOAD SWAP1 PUSH2 0x100 EXP SWAP1 DIV PUSH20 0xFFFFFFFFFFFFFFFFFFFFFFFFFFFFFFFFFFFFFFFF AND PUSH20 0xFFFFFFFFFFFFFFFFFFFFFFFFFFFFFFFFFFFFFFFF AND PUSH4 0x76FE8830 CALLER PUSH1 0x40 MLOAD DUP3 PUSH4 0xFFFFFFFF AND PUSH1 0xE0 SHL DUP2 MSTORE PUSH1 0x4 ADD PUSH2 0x11D6 SWAP2 SWAP1 PUSH2 0x2243 JUMP JUMPDEST PUSH1 0x20 PUSH1 0x40 MLOAD DUP1 DUP4 SUB DUP2 DUP7 GAS STATICCALL ISZERO DUP1 ISZERO PUSH2 0x11F3 JUMPI RETURNDATASIZE PUSH1 0x0 DUP1 RETURNDATACOPY RETURNDATASIZE PUSH1 0x0 REVERT JUMPDEST POP POP POP POP PUSH1 0x40 MLOAD RETURNDATASIZE PUSH1 0x1F NOT PUSH1 0x1F DUP3 ADD AND DUP3 ADD DUP1 PUSH1 0x40 MSTORE POP DUP2 ADD SWAP1 PUSH2 0x1217 SWAP2 SWAP1 PUSH2 0x228A JUMP JUMPDEST PUSH2 0x1256 JUMPI PUSH1 0x40 MLOAD PUSH32 0x8C379A000000000000000000000000000000000000000000000000000000000 DUP2 MSTORE PUSH1 0x4 ADD PUSH2 0x124D SWAP1 PUSH2 0x2720 JUMP JUMPDEST PUSH1 0x40 MLOAD DUP1 SWAP2 SUB SWAP1 REVERT JUMPDEST PUSH1 0x1 DUP1 DUP2 GT ISZERO PUSH2 0x1269 JUMPI PUSH2 0x1268 PUSH2 0x1C6C JUMP JUMPDEST JUMPDEST PUSH1 0x4 PUSH1 0x0 SWAP1 SLOAD SWAP1 PUSH2 0x100 EXP SWAP1 DIV PUSH1 0xFF AND PUSH1 0x1 DUP2 GT ISZERO PUSH2 0x128B JUMPI PUSH2 0x128A PUSH2 0x1C6C JUMP JUMPDEST JUMPDEST EQ PUSH2 0x12CB JUMPI PUSH1 0x40 MLOAD PUSH32 0x8C379A000000000000000000000000000000000000000000000000000000000 DUP2 MSTORE PUSH1 0x4 ADD PUSH2 0x12C2 SWAP1 PUSH2 0x2949 JUMP JUMPDEST PUSH1 0x40 MLOAD DUP1 SWAP2 SUB SWAP1 REVERT JUMPDEST DUP4 PUSH1 0x5 DUP2 SWAP1 SSTORE POP DUP3 PUSH1 0x6 DUP2 SWAP1 SSTORE POP DUP2 PUSH1 0x7 DUP2 SWAP1 SSTORE POP DUP1 PUSH1 0x8 DUP2 SWAP1 SSTORE POP PUSH1 0x0 PUSH1 0x4 PUSH1 0x1 PUSH2 0x100 EXP DUP2 SLOAD DUP2 PUSH1 0xFF MUL NOT AND SWAP1 DUP4 PUSH1 0x2 DUP2 GT ISZERO PUSH2 0x130D JUMPI PUSH2 0x130C PUSH2 0x1C6C JUMP JUMPDEST JUMPDEST MUL OR SWAP1 SSTORE POP PUSH32 0xB41D913FB1BE755B93E5CE1BC7590D0EE8A8FB559DA8C660EBEA83EFF14BA907 CALLER PUSH1 0x5 SLOAD PUSH1 0x40 MLOAD PUSH2 0x1345 SWAP3 SWAP2 SWAP1 PUSH2 0x2685 JUMP JUMPDEST PUSH1 0x40 MLOAD DUP1 SWAP2 SUB SWAP1 LOG1 POP POP POP POP JUMP JUMPDEST PUSH1 0x4 PUSH1 0x0 SWAP1 SLOAD SWAP1 PUSH2 0x100 EXP SWAP1 DIV PUSH1 0xFF AND DUP2 JUMP JUMPDEST PUSH1 0x4 PUSH1 0x3 SWAP1 SLOAD SWAP1 PUSH2 0x100 EXP SWAP1 DIV PUSH1 0xFF AND DUP2 JUMP JUMPDEST PUSH1 0x9 SLOAD DUP2 JUMP JUMPDEST PUSH1 0x6 SLOAD DUP2 JUMP JUMPDEST PUSH1 0x0 DUP1 SLOAD SWAP1 PUSH2 0x100 EXP SWAP1 DIV PUSH20 0xFFFFFFFFFFFFFFFFFFFFFFFFFFFFFFFFFFFFFFFF AND PUSH20 0xFFFFFFFFFFFFFFFFFFFFFFFFFFFFFFFFFFFFFFFF AND PUSH4 0xE669845A CALLER PUSH1 0x40 MLOAD DUP3 PUSH4 0xFFFFFFFF AND PUSH1 0xE0 SHL DUP2 MSTORE PUSH1 0x4 ADD PUSH2 0x13DE SWAP2 SWAP1 PUSH2 0x2243 JUMP JUMPDEST PUSH1 0x20 PUSH1 0x40 MLOAD DUP1 DUP4 SUB DUP2 DUP7 GAS STATICCALL ISZERO DUP1 ISZERO PUSH2 0x13FB JUMPI RETURNDATASIZE PUSH1 0x0 DUP1 RETURNDATACOPY RETURNDATASIZE PUSH1 0x0 REVERT JUMPDEST POP POP POP POP PUSH1 0x40 MLOAD RETURNDATASIZE PUSH1 0x1F NOT PUSH1 0x1F DUP3 ADD AND DUP3 ADD DUP1 PUSH1 0x40 MSTORE POP DUP2 ADD SWAP1 PUSH2 0x141F SWAP2 SWAP1 PUSH2 0x228A JUMP JUMPDEST PUSH2 0x145E JUMPI PUSH1 0x40 MLOAD PUSH32 0x8C379A000000000000000000000000000000000000000000000000000000000 DUP2 MSTORE PUSH1 0x4 ADD PUSH2 0x1455 SWAP1 PUSH2 0x29DB JUMP JUMPDEST PUSH1 0x40 MLOAD DUP1 SWAP2 SUB SWAP1 REVERT JUMPDEST DUP5 PUSH1 0x5 DUP2 SWAP1 SSTORE POP DUP4 PUSH1 0x6 DUP2 SWAP1 SSTORE POP DUP3 PUSH1 0x7 DUP2 SWAP1 SSTORE POP DUP2 PUSH1 0x8 DUP2 SWAP1 SSTORE POP DUP1 PUSH2 0x1484 SWAP1 PUSH2 0x2A38 JUMP JUMPDEST PUSH1 0x3 DUP2 SWAP1 SSTORE POP CALLER PUSH20 0xFFFFFFFFFFFFFFFFFFFFFFFFFFFFFFFFFFFFFFFF AND PUSH32 0x9C8FFD8BC490F9B729F31506B970A7187FBEB3F448E3917020243A49852EC28C PUSH1 0x5 SLOAD PUSH1 0x3 SLOAD PUSH1 0x40 MLOAD PUSH2 0x14D6 SWAP3 SWAP2 SWAP1 PUSH2 0x2A9F JUMP JUMPDEST PUSH1 0x40 MLOAD DUP1 SWAP2 SUB SWAP1 LOG2 POP POP POP POP POP JUMP JUMPDEST PUSH1 0xA SLOAD DUP2 JUMP JUMPDEST PUSH1 0xB SLOAD DUP2 JUMP JUMPDEST PUSH1 0x0 DUP1 SLOAD SWAP1 PUSH2 0x100 EXP SWAP1 DIV PUSH20 0xFFFFFFFFFFFFFFFFFFFFFFFFFFFFFFFFFFFFFFFF AND PUSH20 0xFFFFFFFFFFFFFFFFFFFFFFFFFFFFFFFFFFFFFFFF AND PUSH4 0x869CFBC CALLER PUSH1 0x40 MLOAD DUP3 PUSH4 0xFFFFFFFF AND PUSH1 0xE0 SHL DUP2 MSTORE PUSH1 0x4 ADD PUSH2 0x154A SWAP2 SWAP1 PUSH2 0x2243 JUMP JUMPDEST PUSH1 0x20 PUSH1 0x40 MLOAD DUP1 DUP4 SUB DUP2 DUP7 GAS STATICCALL ISZERO DUP1 ISZERO PUSH2 0x1567 JUMPI RETURNDATASIZE PUSH1 0x0 DUP1 RETURNDATACOPY RETURNDATASIZE PUSH1 0x0 REVERT JUMPDEST POP POP POP POP PUSH1 0x40 MLOAD RETURNDATASIZE PUSH1 0x1F NOT PUSH1 0x1F DUP3 ADD AND DUP3 ADD DUP1 PUSH1 0x40 MSTORE POP DUP2 ADD SWAP1 PUSH2 0x158B SWAP2 SWAP1 PUSH2 0x228A JUMP JUMPDEST PUSH2 0x15CA JUMPI PUSH1 0x40 MLOAD PUSH32 0x8C379A000000000000000000000000000000000000000000000000000000000 DUP2 MSTORE PUSH1 0x4 ADD PUSH2 0x15C1 SWAP1 PUSH2 0x233A JUMP JUMPDEST PUSH1 0x40 MLOAD DUP1 SWAP2 SUB SWAP1 REVERT JUMPDEST PUSH1 0x0 PUSH1 0x1 DUP2 GT ISZERO PUSH2 0x15DE JUMPI PUSH2 0x15DD PUSH2 0x1C6C JUMP JUMPDEST JUMPDEST PUSH1 0x4 PUSH1 0x2 SWAP1 SLOAD SWAP1 PUSH2 0x100 EXP SWAP1 DIV PUSH1 0xFF AND PUSH1 0x1 DUP2 GT ISZERO PUSH2 0x1600 JUMPI PUSH2 0x15FF PUSH2 0x1C6C JUMP JUMPDEST JUMPDEST EQ PUSH2 0x1640 JUMPI PUSH1 0x40 MLOAD PUSH32 0x8C379A000000000000000000000000000000000000000000000000000000000 DUP2 MSTORE PUSH1 0x4 ADD PUSH2 0x1637 SWAP1 PUSH2 0x2B14 JUMP JUMPDEST PUSH1 0x40 MLOAD DUP1 SWAP2 SUB SWAP1 REVERT JUMPDEST DUP1 PUSH1 0x5 DUP2 SWAP1 SSTORE POP PUSH1 0x1 PUSH1 0x4 PUSH1 0x2 PUSH2 0x100 EXP DUP2 SLOAD DUP2 PUSH1 0xFF MUL NOT AND SWAP1 DUP4 PUSH1 0x1 DUP2 GT ISZERO PUSH2 0x166D JUMPI PUSH2 0x166C PUSH2 0x1C6C JUMP JUMPDEST JUMPDEST MUL OR SWAP1 SSTORE POP PUSH32 0x9DFDCD2F0B2546E2DD28EC0474733BE6E9C7D7EB650D08223F9E1E6FA08D5638 CALLER PUSH1 0x5 SLOAD PUSH1 0x3 SLOAD PUSH1 0x40 MLOAD PUSH2 0x16A9 SWAP4 SWAP3 SWAP2 SWAP1 PUSH2 0x2B34 JUMP JUMPDEST PUSH1 0x40 MLOAD DUP1 SWAP2 SUB SWAP1 LOG1 POP JUMP JUMPDEST PUSH1 0x0 DUP1 SLOAD SWAP1 PUSH2 0x100 EXP SWAP1 DIV PUSH20 0xFFFFFFFFFFFFFFFFFFFFFFFFFFFFFFFFFFFFFFFF AND PUSH20 0xFFFFFFFFFFFFFFFFFFFFFFFFFFFFFFFFFFFFFFFF AND PUSH4 0x76FE8830 CALLER PUSH1 0x40 MLOAD DUP3 PUSH4 0xFFFFFFFF AND PUSH1 0xE0 SHL DUP2 MSTORE PUSH1 0x4 ADD PUSH2 0x170D SWAP2 SWAP1 PUSH2 0x2243 JUMP JUMPDEST PUSH1 0x20 PUSH1 0x40 MLOAD DUP1 DUP4 SUB DUP2 DUP7 GAS STATICCALL ISZERO DUP1 ISZERO PUSH2 0x172A JUMPI RETURNDATASIZE PUSH1 0x0 DUP1 RETURNDATACOPY RETURNDATASIZE PUSH1 0x0 REVERT JUMPDEST POP POP POP POP PUSH1 0x40 MLOAD RETURNDATASIZE PUSH1 0x1F NOT PUSH1 0x1F DUP3 ADD AND DUP3 ADD DUP1 PUSH1 0x40 MSTORE POP DUP2 ADD SWAP1 PUSH2 0x174E SWAP2 SWAP1 PUSH2 0x228A JUMP JUMPDEST PUSH2 0x178D JUMPI PUSH1 0x40 MLOAD PUSH32 0x8C379A000000000000000000000000000000000000000000000000000000000 DUP2 MSTORE PUSH1 0x4 ADD PUSH2 0x1784 SWAP1 PUSH2 0x2720 JUMP JUMPDEST PUSH1 0x40 MLOAD DUP1 SWAP2 SUB SWAP1 REVERT JUMPDEST PUSH1 0x1 PUSH1 0x2 DUP2 GT ISZERO PUSH2 0x17A1 JUMPI PUSH2 0x17A0 PUSH2 0x1C6C JUMP JUMPDEST JUMPDEST PUSH1 0x4 PUSH1 0x1 SWAP1 SLOAD SWAP1 PUSH2 0x100 EXP SWAP1 DIV PUSH1 0xFF AND PUSH1 0x2 DUP2 GT ISZERO PUSH2 0x17C3 JUMPI PUSH2 0x17C2 PUSH2 0x1C6C JUMP JUMPDEST JUMPDEST EQ PUSH2 0x1803 JUMPI PUSH1 0x40 MLOAD PUSH32 0x8C379A000000000000000000000000000000000000000000000000000000000 DUP2 MSTORE PUSH1 0x4 ADD PUSH2 0x17FA SWAP1 PUSH2 0x2BB7 JUMP JUMPDEST PUSH1 0x40 MLOAD DUP1 SWAP2 SUB SWAP1 REVERT JUMPDEST DUP1 PUSH1 0x5 DUP2 SWAP1 SSTORE POP PUSH1 0x0 PUSH1 0x4 PUSH1 0x2 PUSH2 0x100 EXP DUP2 SLOAD DUP2 PUSH1 0xFF MUL NOT AND SWAP1 DUP4 PUSH1 0x1 DUP2 GT ISZERO PUSH2 0x1830 JUMPI PUSH2 0x182F PUSH2 0x1C6C JUMP JUMPDEST JUMPDEST MUL OR SWAP1 SSTORE POP PUSH32 0x4403B0E261E570E12359C3931B2EE7F2B729F5A1D24B8B3DD005EBFFC14BBDE1 CALLER PUSH1 0x5 SLOAD PUSH1 0x40 MLOAD PUSH2 0x1868 SWAP3 SWAP2 SWAP1 PUSH2 0x2685 JUMP JUMPDEST PUSH1 0x40 MLOAD DUP1 SWAP2 SUB SWAP1 LOG1 POP JUMP JUMPDEST PUSH1 0x4 PUSH1 0x1 SWAP1 SLOAD SWAP1 PUSH2 0x100 EXP SWAP1 DIV PUSH1 0xFF AND DUP2 JUMP JUMPDEST PUSH1 0x0 DUP1 SLOAD SWAP1 PUSH2 0x100 EXP SWAP1 DIV PUSH20 0xFFFFFFFFFFFFFFFFFFFFFFFFFFFFFFFFFFFFFFFF AND PUSH20 0xFFFFFFFFFFFFFFFFFFFFFFFFFFFFFFFFFFFFFFFF AND PUSH4 0xB6F28A6C CALLER PUSH1 0x40 MLOAD DUP3 PUSH4 0xFFFFFFFF AND PUSH1 0xE0 SHL DUP2 MSTORE PUSH1 0x4 ADD PUSH2 0x18DF SWAP2 SWAP1 PUSH2 0x2243 JUMP JUMPDEST PUSH1 0x20 PUSH1 0x40 MLOAD DUP1 DUP4 SUB DUP2 DUP7 GAS STATICCALL ISZERO DUP1 ISZERO PUSH2 0x18FC JUMPI RETURNDATASIZE PUSH1 0x0 DUP1 RETURNDATACOPY RETURNDATASIZE PUSH1 0x0 REVERT JUMPDEST POP POP POP POP PUSH1 0x40 MLOAD RETURNDATASIZE PUSH1 0x1F NOT PUSH1 0x1F DUP3 ADD AND DUP3 ADD DUP1 PUSH1 0x40 MSTORE POP DUP2 ADD SWAP1 PUSH2 0x1920 SWAP2 SWAP1 PUSH2 0x228A JUMP JUMPDEST PUSH2 0x195F JUMPI PUSH1 0x40 MLOAD PUSH32 0x8C379A000000000000000000000000000000000000000000000000000000000 DUP2 MSTORE PUSH1 0x4 ADD PUSH2 0x1956 SWAP1 PUSH2 0x2567 JUMP JUMPDEST PUSH1 0x40 MLOAD DUP1 SWAP2 SUB SWAP1 REVERT JUMPDEST PUSH1 0x0 DUP1 SLOAD SWAP1 PUSH2 0x100 EXP SWAP1 DIV PUSH20 0xFFFFFFFFFFFFFFFFFFFFFFFFFFFFFFFFFFFFFFFF AND PUSH20 0xFFFFFFFFFFFFFFFFFFFFFFFFFFFFFFFFFFFFFFFF AND PUSH4 0x76FE8830 DUP4 PUSH1 0x40 MLOAD DUP3 PUSH4 0xFFFFFFFF AND PUSH1 0xE0 SHL DUP2 MSTORE PUSH1 0x4 ADD PUSH2 0x19B8 SWAP2 SWAP1 PUSH2 0x2243 JUMP JUMPDEST PUSH1 0x20 PUSH1 0x40 MLOAD DUP1 DUP4 SUB DUP2 DUP7 GAS STATICCALL ISZERO DUP1 ISZERO PUSH2 0x19D5 JUMPI RETURNDATASIZE PUSH1 0x0 DUP1 RETURNDATACOPY RETURNDATASIZE PUSH1 0x0 REVERT JUMPDEST POP POP POP POP PUSH1 0x40 MLOAD RETURNDATASIZE PUSH1 0x1F NOT PUSH1 0x1F DUP3 ADD AND DUP3 ADD DUP1 PUSH1 0x40 MSTORE POP DUP2 ADD SWAP1 PUSH2 0x19F9 SWAP2 SWAP1 PUSH2 0x228A JUMP JUMPDEST PUSH2 0x1A38 JUMPI PUSH1 0x40 MLOAD PUSH32 0x8C379A000000000000000000000000000000000000000000000000000000000 DUP2 MSTORE PUSH1 0x4 ADD PUSH2 0x1A2F SWAP1 PUSH2 0x2C23 JUMP JUMPDEST PUSH1 0x40 MLOAD DUP1 SWAP2 SUB SWAP1 REVERT JUMPDEST PUSH1 0x0 PUSH1 0x2 DUP2 GT ISZERO PUSH2 0x1A4C JUMPI PUSH2 0x1A4B PUSH2 0x1C6C JUMP JUMPDEST JUMPDEST PUSH1 0x4 PUSH1 0x1 SWAP1 SLOAD SWAP1 PUSH2 0x100 EXP SWAP1 DIV PUSH1 0xFF AND PUSH1 0x2 DUP2 GT ISZERO PUSH2 0x1A6E JUMPI PUSH2 0x1A6D PUSH2 0x1C6C JUMP JUMPDEST JUMPDEST EQ PUSH2 0x1AAE JUMPI PUSH1 0x40 MLOAD PUSH32 0x8C379A000000000000000000000000000000000000000000000000000000000 DUP2 MSTORE PUSH1 0x4 ADD PUSH2 0x1AA5 SWAP1 PUSH2 0x2C8F JUMP JUMPDEST PUSH1 0x40 MLOAD DUP1 SWAP2 SUB SWAP1 REVERT JUMPDEST DUP1 PUSH1 0x5 DUP2 SWAP1 SSTORE POP PUSH1 0x1 PUSH1 0x2 DUP2 GT ISZERO PUSH2 0x1AC9 JUMPI PUSH2 0x1AC8 PUSH2 0x1C6C JUMP JUMPDEST JUMPDEST DUP4 PUSH1 0x2 DUP2 GT ISZERO PUSH2 0x1ADC JUMPI PUSH2 0x1ADB PUSH2 0x1C6C JUMP JUMPDEST JUMPDEST SUB PUSH2 0x1B22 JUMPI PUSH32 0x5DB987A84E8B2C66F424D7316C722A7A0A15C7469512C3B343F8792ECB8D965E CALLER PUSH1 0x1 PUSH1 0x5 SLOAD DUP6 PUSH1 0x40 MLOAD PUSH2 0x1B19 SWAP5 SWAP4 SWAP3 SWAP2 SWAP1 PUSH2 0x2CAF JUMP JUMPDEST PUSH1 0x40 MLOAD DUP1 SWAP2 SUB SWAP1 LOG1 JUMPDEST PUSH1 0x2 DUP1 DUP2 GT ISZERO PUSH2 0x1B35 JUMPI PUSH2 0x1B34 PUSH2 0x1C6C JUMP JUMPDEST JUMPDEST DUP4 PUSH1 0x2 DUP2 GT ISZERO PUSH2 0x1B48 JUMPI PUSH2 0x1B47 PUSH2 0x1C6C JUMP JUMPDEST JUMPDEST SUB PUSH2 0x1B8E JUMPI PUSH32 0x16474A9FA5F6B36D601FB725A0B6F3C2A1D006F12B8A728B593BB1481058D75 CALLER PUSH1 0x2 PUSH1 0x5 SLOAD DUP6 PUSH1 0x40 MLOAD PUSH2 0x1B85 SWAP5 SWAP4 SWAP3 SWAP2 SWAP1 PUSH2 0x2D2F JUMP JUMPDEST PUSH1 0x40 MLOAD DUP1 SWAP2 SUB SWAP1 LOG1 JUMPDEST POP POP POP JUMP JUMPDEST PUSH1 0x5 SLOAD DUP2 JUMP JUMPDEST PUSH1 0x0 DUP2 SWAP1 POP SWAP2 SWAP1 POP JUMP JUMPDEST PUSH2 0x1BAC DUP2 PUSH2 0x1B99 JUMP JUMPDEST DUP3 MSTORE POP POP JUMP JUMPDEST PUSH1 0x0 PUSH1 0x20 DUP3 ADD SWAP1 POP PUSH2 0x1BC7 PUSH1 0x0 DUP4 ADD DUP5 PUSH2 0x1BA3 JUMP JUMPDEST SWAP3 SWAP2 POP POP JUMP JUMPDEST PUSH1 0x0 PUSH1 0x40 MLOAD SWAP1 POP SWAP1 JUMP JUMPDEST PUSH1 0x0 DUP1 REVERT JUMPDEST PUSH1 0x0 DUP1 REVERT JUMPDEST PUSH1 0x0 PUSH20 0xFFFFFFFFFFFFFFFFFFFFFFFFFFFFFFFFFFFFFFFF DUP3 AND SWAP1 POP SWAP2 SWAP1 POP JUMP JUMPDEST PUSH1 0x0 PUSH2 0x1C0C DUP3 PUSH2 0x1BE1 JUMP JUMPDEST SWAP1 POP SWAP2 SWAP1 POP JUMP JUMPDEST PUSH2 0x1C1C DUP2 PUSH2 0x1C01 JUMP JUMPDEST DUP2 EQ PUSH2 0x1C27 JUMPI PUSH1 0x0 DUP1 REVERT JUMPDEST POP JUMP JUMPDEST PUSH1 0x0 DUP2 CALLDATALOAD SWAP1 POP PUSH2 0x1C39 DUP2 PUSH2 0x1C13 JUMP JUMPDEST SWAP3 SWAP2 POP POP JUMP JUMPDEST PUSH1 0x0 PUSH1 0x20 DUP3 DUP5 SUB SLT ISZERO PUSH2 0x1C55 JUMPI PUSH2 0x1C54 PUSH2 0x1BD7 JUMP JUMPDEST JUMPDEST PUSH1 0x0 PUSH2 0x1C63 DUP5 DUP3 DUP6 ADD PUSH2 0x1C2A JUMP JUMPDEST SWAP2 POP POP SWAP3 SWAP2 POP POP JUMP JUMPDEST PUSH32 0x4E487B7100000000000000000000000000000000000000000000000000000000 PUSH1 0x0 MSTORE PUSH1 0x21 PUSH1 0x4 MSTORE PUSH1 0x24 PUSH1 0x0 REVERT JUMPDEST PUSH1 0x2 DUP2 LT PUSH2 0x1CAC JUMPI PUSH2 0x1CAB PUSH2 0x1C6C JUMP JUMPDEST JUMPDEST POP JUMP JUMPDEST PUSH1 0x0 DUP2 SWAP1 POP PUSH2 0x1CBD DUP3 PUSH2 0x1C9B JUMP JUMPDEST SWAP2 SWAP1 POP JUMP JUMPDEST PUSH1 0x0 PUSH2 0x1CCD DUP3 PUSH2 0x1CAF JUMP JUMPDEST SWAP1 POP SWAP2 SWAP1 POP JUMP JUMPDEST PUSH2 0x1CDD DUP2 PUSH2 0x1CC2 JUMP JUMPDEST DUP3 MSTORE POP POP JUMP JUMPDEST PUSH1 0x0 PUSH1 0x20 DUP3 ADD SWAP1 POP PUSH2 0x1CF8 PUSH1 0x0 DUP4 ADD DUP5 PUSH2 0x1CD4 JUMP JUMPDEST SWAP3 SWAP2 POP POP JUMP JUMPDEST PUSH2 0x1D07 DUP2 PUSH2 0x1B99 JUMP JUMPDEST DUP2 EQ PUSH2 0x1D12 JUMPI PUSH1 0x0 DUP1 REVERT JUMPDEST POP JUMP JUMPDEST PUSH1 0x0 DUP2 CALLDATALOAD SWAP1 POP PUSH2 0x1D24 DUP2 PUSH2 0x1CFE JUMP JUMPDEST SWAP3 SWAP2 POP POP JUMP JUMPDEST PUSH1 0x0 PUSH1 0x20 DUP3 DUP5 SUB SLT ISZERO PUSH2 0x1D40 JUMPI PUSH2 0x1D3F PUSH2 0x1BD7 JUMP JUMPDEST JUMPDEST PUSH1 0x0 PUSH2 0x1D4E DUP5 DUP3 DUP6 ADD PUSH2 0x1D15 JUMP JUMPDEST SWAP2 POP POP SWAP3 SWAP2 POP POP JUMP JUMPDEST PUSH1 0x0 DUP1 PUSH1 0x40 DUP4 DUP6 SUB SLT ISZERO PUSH2 0x1D6E JUMPI PUSH2 0x1D6D PUSH2 0x1BD7 JUMP JUMPDEST JUMPDEST PUSH1 0x0 PUSH2 0x1D7C DUP6 DUP3 DUP7 ADD PUSH2 0x1D15 JUMP JUMPDEST SWAP3 POP POP PUSH1 0x20 PUSH2 0x1D8D DUP6 DUP3 DUP7 ADD PUSH2 0x1D15 JUMP JUMPDEST SWAP2 POP POP SWAP3 POP SWAP3 SWAP1 POP JUMP JUMPDEST PUSH1 0x0 DUP1 PUSH1 0x40 DUP4 DUP6 SUB SLT ISZERO PUSH2 0x1DAE JUMPI PUSH2 0x1DAD PUSH2 0x1BD7 JUMP JUMPDEST JUMPDEST PUSH1 0x0 PUSH2 0x1DBC DUP6 DUP3 DUP7 ADD PUSH2 0x1C2A JUMP JUMPDEST SWAP3 POP POP PUSH1 0x20 PUSH2 0x1DCD DUP6 DUP3 DUP7 ADD PUSH2 0x1D15 JUMP JUMPDEST SWAP2 POP POP SWAP3 POP SWAP3 SWAP1 POP JUMP JUMPDEST PUSH2 0x1DE0 DUP2 PUSH2 0x1C01 JUMP JUMPDEST DUP3 MSTORE POP POP JUMP JUMPDEST PUSH1 0x0 DUP2 ISZERO ISZERO SWAP1 POP SWAP2 SWAP1 POP JUMP JUMPDEST PUSH2 0x1DFB DUP2 PUSH2 0x1DE6 JUMP JUMPDEST DUP3 MSTORE POP POP JUMP JUMPDEST PUSH1 0x0 PUSH1 0x40 DUP3 ADD SWAP1 POP PUSH2 0x1E16 PUSH1 0x0 DUP4 ADD DUP6 PUSH2 0x1DD7 JUMP JUMPDEST PUSH2 0x1E23 PUSH1 0x20 DUP4 ADD DUP5 PUSH2 0x1DF2 JUMP JUMPDEST SWAP4 SWAP3 POP POP POP JUMP JUMPDEST PUSH1 0x0 DUP2 SWAP1 POP SWAP2 SWAP1 POP JUMP JUMPDEST PUSH2 0x1E3D DUP2 PUSH2 0x1E2A JUMP JUMPDEST DUP3 MSTORE POP POP JUMP JUMPDEST PUSH1 0x0 PUSH1 0x20 DUP3 ADD SWAP1 POP PUSH2 0x1E58 PUSH1 0x0 DUP4 ADD DUP5 PUSH2 0x1E34 JUMP JUMPDEST SWAP3 SWAP2 POP POP JUMP JUMPDEST PUSH1 0x0 DUP1 PUSH1 0x0 DUP1 PUSH1 0x80 DUP6 DUP8 SUB SLT ISZERO PUSH2 0x1E78 JUMPI PUSH2 0x1E77 PUSH2 0x1BD7 JUMP JUMPDEST JUMPDEST PUSH1 0x0 PUSH2 0x1E86 DUP8 DUP3 DUP9 ADD PUSH2 0x1D15 JUMP JUMPDEST SWAP5 POP POP PUSH1 0x20 PUSH2 0x1E97 DUP8 DUP3 DUP9 ADD PUSH2 0x1D15 JUMP JUMPDEST SWAP4 POP POP PUSH1 0x40 PUSH2 0x1EA8 DUP8 DUP3 DUP9 ADD PUSH2 0x1D15 JUMP JUMPDEST SWAP3 POP POP PUSH1 0x60 PUSH2 0x1EB9 DUP8 DUP3 DUP9 ADD PUSH2 0x1D15 JUMP JUMPDEST SWAP2 POP POP SWAP3 SWAP6 SWAP2 SWAP5 POP SWAP3 POP JUMP JUMPDEST PUSH1 0x2 DUP2 LT PUSH2 0x1ED6 JUMPI PUSH2 0x1ED5 PUSH2 0x1C6C JUMP JUMPDEST JUMPDEST POP JUMP JUMPDEST PUSH1 0x0 DUP2 SWAP1 POP PUSH2 0x1EE7 DUP3 PUSH2 0x1EC5 JUMP JUMPDEST SWAP2 SWAP1 POP JUMP JUMPDEST PUSH1 0x0 PUSH2 0x1EF7 DUP3 PUSH2 0x1ED9 JUMP JUMPDEST SWAP1 POP SWAP2 SWAP1 POP JUMP JUMPDEST PUSH2 0x1F07 DUP2 PUSH2 0x1EEC JUMP JUMPDEST DUP3 MSTORE POP POP JUMP JUMPDEST PUSH1 0x0 PUSH1 0x20 DUP3 ADD SWAP1 POP PUSH2 0x1F22 PUSH1 0x0 DUP4 ADD DUP5 PUSH2 0x1EFE JUMP JUMPDEST SWAP3 SWAP2 POP POP JUMP JUMPDEST PUSH1 0x2 DUP2 LT PUSH2 0x1F39 JUMPI PUSH2 0x1F38 PUSH2 0x1C6C JUMP JUMPDEST JUMPDEST POP JUMP JUMPDEST PUSH1 0x0 DUP2 SWAP1 POP PUSH2 0x1F4A DUP3 PUSH2 0x1F28 JUMP JUMPDEST SWAP2 SWAP1 POP JUMP JUMPDEST PUSH1 0x0 PUSH2 0x1F5A DUP3 PUSH2 0x1F3C JUMP JUMPDEST SWAP1 POP SWAP2 SWAP1 POP JUMP JUMPDEST PUSH2 0x1F6A DUP2 PUSH2 0x1F4F JUMP JUMPDEST DUP3 MSTORE POP POP JUMP JUMPDEST PUSH1 0x0 PUSH1 0x20 DUP3 ADD SWAP1 POP PUSH2 0x1F85 PUSH1 0x0 DUP4 ADD DUP5 PUSH2 0x1F61 JUMP JUMPDEST SWAP3 SWAP2 POP POP JUMP JUMPDEST PUSH1 0x0 DUP1 REVERT JUMPDEST PUSH1 0x0 DUP1 REVERT JUMPDEST PUSH1 0x0 PUSH1 0x1F NOT PUSH1 0x1F DUP4 ADD AND SWAP1 POP SWAP2 SWAP1 POP JUMP JUMPDEST PUSH32 0x4E487B7100000000000000000000000000000000000000000000000000000000 PUSH1 0x0 MSTORE PUSH1 0x41 PUSH1 0x4 MSTORE PUSH1 0x24 PUSH1 0x0 REVERT JUMPDEST PUSH2 0x1FDE DUP3 PUSH2 0x1F95 JUMP JUMPDEST DUP2 ADD DUP2 DUP2 LT PUSH8 0xFFFFFFFFFFFFFFFF DUP3 GT OR ISZERO PUSH2 0x1FFD JUMPI PUSH2 0x1FFC PUSH2 0x1FA6 JUMP JUMPDEST JUMPDEST DUP1 PUSH1 0x40 MSTORE POP POP POP JUMP JUMPDEST PUSH1 0x0 PUSH2 0x2010 PUSH2 0x1BCD JUMP JUMPDEST SWAP1 POP PUSH2 0x201C DUP3 DUP3 PUSH2 0x1FD5 JUMP JUMPDEST SWAP2 SWAP1 POP JUMP JUMPDEST PUSH1 0x0 PUSH8 0xFFFFFFFFFFFFFFFF DUP3 GT ISZERO PUSH2 0x203C JUMPI PUSH2 0x203B PUSH2 0x1FA6 JUMP JUMPDEST JUMPDEST PUSH2 0x2045 DUP3 PUSH2 0x1F95 JUMP JUMPDEST SWAP1 POP PUSH1 0x20 DUP2 ADD SWAP1 POP SWAP2 SWAP1 POP JUMP JUMPDEST DUP3 DUP2 DUP4 CALLDATACOPY PUSH1 0x0 DUP4 DUP4 ADD MSTORE POP POP POP JUMP JUMPDEST PUSH1 0x0 PUSH2 0x2074 PUSH2 0x206F DUP5 PUSH2 0x2021 JUMP JUMPDEST PUSH2 0x2006 JUMP JUMPDEST SWAP1 POP DUP3 DUP2 MSTORE PUSH1 0x20 DUP2 ADD DUP5 DUP5 DUP5 ADD GT ISZERO PUSH2 0x2090 JUMPI PUSH2 0x208F PUSH2 0x1F90 JUMP JUMPDEST JUMPDEST PUSH2 0x209B DUP5 DUP3 DUP6 PUSH2 0x2052 JUMP JUMPDEST POP SWAP4 SWAP3 POP POP POP JUMP JUMPDEST PUSH1 0x0 DUP3 PUSH1 0x1F DUP4 ADD SLT PUSH2 0x20B8 JUMPI PUSH2 0x20B7 PUSH2 0x1F8B JUMP JUMPDEST JUMPDEST DUP2 CALLDATALOAD PUSH2 0x20C8 DUP5 DUP3 PUSH1 0x20 DUP7 ADD PUSH2 0x2061 JUMP JUMPDEST SWAP2 POP POP SWAP3 SWAP2 POP POP JUMP JUMPDEST PUSH1 0x0 DUP1 PUSH1 0x0 DUP1 PUSH1 0x0 PUSH1 0xA0 DUP7 DUP9 SUB SLT ISZERO PUSH2 0x20ED JUMPI PUSH2 0x20EC PUSH2 0x1BD7 JUMP JUMPDEST JUMPDEST PUSH1 0x0 PUSH2 0x20FB DUP9 DUP3 DUP10 ADD PUSH2 0x1D15 JUMP JUMPDEST SWAP6 POP POP PUSH1 0x20 PUSH2 0x210C DUP9 DUP3 DUP10 ADD PUSH2 0x1D15 JUMP JUMPDEST SWAP5 POP POP PUSH1 0x40 PUSH2 0x211D DUP9 DUP3 DUP10 ADD PUSH2 0x1D15 JUMP JUMPDEST SWAP4 POP POP PUSH1 0x60 PUSH2 0x212E DUP9 DUP3 DUP10 ADD PUSH2 0x1D15 JUMP JUMPDEST SWAP3 POP POP PUSH1 0x80 DUP7 ADD CALLDATALOAD PUSH8 0xFFFFFFFFFFFFFFFF DUP2 GT ISZERO PUSH2 0x214F JUMPI PUSH2 0x214E PUSH2 0x1BDC JUMP JUMPDEST JUMPDEST PUSH2 0x215B DUP9 DUP3 DUP10 ADD PUSH2 0x20A3 JUMP JUMPDEST SWAP2 POP POP SWAP3 SWAP6 POP SWAP3 SWAP6 SWAP1 SWAP4 POP JUMP JUMPDEST PUSH1 0x3 DUP2 LT PUSH2 0x2179 JUMPI PUSH2 0x2178 PUSH2 0x1C6C JUMP JUMPDEST JUMPDEST POP JUMP JUMPDEST PUSH1 0x0 DUP2 SWAP1 POP PUSH2 0x218A DUP3 PUSH2 0x2168 JUMP JUMPDEST SWAP2 SWAP1 POP JUMP JUMPDEST PUSH1 0x0 PUSH2 0x219A DUP3 PUSH2 0x217C JUMP JUMPDEST SWAP1 POP SWAP2 SWAP1 POP JUMP JUMPDEST PUSH2 0x21AA DUP2 PUSH2 0x218F JUMP JUMPDEST DUP3 MSTORE POP POP JUMP JUMPDEST PUSH1 0x0 PUSH1 0x20 DUP3 ADD SWAP1 POP PUSH2 0x21C5 PUSH1 0x0 DUP4 ADD DUP5 PUSH2 0x21A1 JUMP JUMPDEST SWAP3 SWAP2 POP POP JUMP JUMPDEST PUSH1 0x3 DUP2 LT PUSH2 0x21D8 JUMPI PUSH1 0x0 DUP1 REVERT JUMPDEST POP JUMP JUMPDEST PUSH1 0x0 DUP2 CALLDATALOAD SWAP1 POP PUSH2 0x21EA DUP2 PUSH2 0x21CB JUMP JUMPDEST SWAP3 SWAP2 POP POP JUMP JUMPDEST PUSH1 0x0 DUP1 PUSH1 0x0 PUSH1 0x60 DUP5 DUP7 SUB SLT ISZERO PUSH2 0x2209 JUMPI PUSH2 0x2208 PUSH2 0x1BD7 JUMP JUMPDEST JUMPDEST PUSH1 0x0 PUSH2 0x2217 DUP7 DUP3 DUP8 ADD PUSH2 0x21DB JUMP JUMPDEST SWAP4 POP POP PUSH1 0x20 PUSH2 0x2228 DUP7 DUP3 DUP8 ADD PUSH2 0x1C2A JUMP JUMPDEST SWAP3 POP POP PUSH1 0x40 PUSH2 0x2239 DUP7 DUP3 DUP8 ADD PUSH2 0x1D15 JUMP JUMPDEST SWAP2 POP POP SWAP3 POP SWAP3 POP SWAP3 JUMP JUMPDEST PUSH1 0x0 PUSH1 0x20 DUP3 ADD SWAP1 POP PUSH2 0x2258 PUSH1 0x0 DUP4 ADD DUP5 PUSH2 0x1DD7 JUMP JUMPDEST SWAP3 SWAP2 POP POP JUMP JUMPDEST PUSH2 0x2267 DUP2 PUSH2 0x1DE6 JUMP JUMPDEST DUP2 EQ PUSH2 0x2272 JUMPI PUSH1 0x0 DUP1 REVERT JUMPDEST POP JUMP JUMPDEST PUSH1 0x0 DUP2 MLOAD SWAP1 POP PUSH2 0x2284 DUP2 PUSH2 0x225E JUMP JUMPDEST SWAP3 SWAP2 POP POP JUMP JUMPDEST PUSH1 0x0 PUSH1 0x20 DUP3 DUP5 SUB SLT ISZERO PUSH2 0x22A0 JUMPI PUSH2 0x229F PUSH2 0x1BD7 JUMP JUMPDEST JUMPDEST PUSH1 0x0 PUSH2 0x22AE DUP5 DUP3 DUP6 ADD PUSH2 0x2275 JUMP JUMPDEST SWAP2 POP POP SWAP3 SWAP2 POP POP JUMP JUMPDEST PUSH1 0x0 DUP3 DUP3 MSTORE PUSH1 0x20 DUP3 ADD SWAP1 POP SWAP3 SWAP2 POP POP JUMP JUMPDEST PUSH32 0x4F6E6C792050617469656E7420697320616C6C6F77656420746F2073656C6563 PUSH1 0x0 DUP3 ADD MSTORE PUSH32 0x7420706861726D61636965730000000000000000000000000000000000000000 PUSH1 0x20 DUP3 ADD MSTORE POP JUMP JUMPDEST PUSH1 0x0 PUSH2 0x2324 PUSH1 0x2C DUP4 PUSH2 0x22B7 JUMP JUMPDEST SWAP2 POP PUSH2 0x232F DUP3 PUSH2 0x22C8 JUMP JUMPDEST PUSH1 0x40 DUP3 ADD SWAP1 POP SWAP2 SWAP1 POP JUMP JUMPDEST PUSH1 0x0 PUSH1 0x20 DUP3 ADD SWAP1 POP DUP2 DUP2 SUB PUSH1 0x0 DUP4 ADD MSTORE PUSH2 0x2353 DUP2 PUSH2 0x2317 JUMP JUMPDEST SWAP1 POP SWAP2 SWAP1 POP JUMP JUMPDEST PUSH32 0x596F752063616E6E6F742073656C656374206D6F7265207468616E2035205068 PUSH1 0x0 DUP3 ADD MSTORE PUSH32 0x61726D6163696573000000000000000000000000000000000000000000000000 PUSH1 0x20 DUP3 ADD MSTORE POP JUMP JUMPDEST PUSH1 0x0 PUSH2 0x23B6 PUSH1 0x28 DUP4 PUSH2 0x22B7 JUMP JUMPDEST SWAP2 POP PUSH2 0x23C1 DUP3 PUSH2 0x235A JUMP JUMPDEST PUSH1 0x40 DUP3 ADD SWAP1 POP SWAP2 SWAP1 POP JUMP JUMPDEST PUSH1 0x0 PUSH1 0x20 DUP3 ADD SWAP1 POP DUP2 DUP2 SUB PUSH1 0x0 DUP4 ADD MSTORE PUSH2 0x23E5 DUP2 PUSH2 0x23A9 JUMP JUMPDEST SWAP1 POP SWAP2 SWAP1 POP JUMP JUMPDEST PUSH32 0x4F6E6C79207265676973746572656420506861726D61636965732063616E2062 PUSH1 0x0 DUP3 ADD MSTORE PUSH32 0x652073656C656374656400000000000000000000000000000000000000000000 PUSH1 0x20 DUP3 ADD MSTORE POP JUMP JUMPDEST PUSH1 0x0 PUSH2 0x2448 PUSH1 0x2A DUP4 PUSH2 0x22B7 JUMP JUMPDEST SWAP2 POP PUSH2 0x2453 DUP3 PUSH2 0x23EC JUMP JUMPDEST PUSH1 0x40 DUP3 ADD SWAP1 POP SWAP2 SWAP1 POP JUMP JUMPDEST PUSH1 0x0 PUSH1 0x20 DUP3 ADD SWAP1 POP DUP2 DUP2 SUB PUSH1 0x0 DUP4 ADD MSTORE PUSH2 0x2477 DUP2 PUSH2 0x243B JUMP JUMPDEST SWAP1 POP SWAP2 SWAP1 POP JUMP JUMPDEST PUSH32 0x4E487B7100000000000000000000000000000000000000000000000000000000 PUSH1 0x0 MSTORE PUSH1 0x11 PUSH1 0x4 MSTORE PUSH1 0x24 PUSH1 0x0 REVERT JUMPDEST PUSH1 0x0 PUSH2 0x24B8 DUP3 PUSH2 0x1B99 JUMP JUMPDEST SWAP2 POP PUSH32 0xFFFFFFFFFFFFFFFFFFFFFFFFFFFFFFFFFFFFFFFFFFFFFFFFFFFFFFFFFFFFFFFF DUP3 SUB PUSH2 0x24EA JUMPI PUSH2 0x24E9 PUSH2 0x247E JUMP JUMPDEST JUMPDEST PUSH1 0x1 DUP3 ADD SWAP1 POP SWAP2 SWAP1 POP JUMP JUMPDEST PUSH32 0x4F6E6C7920496E737572616E636520636F6D70616E792063616E2063616C6C20 PUSH1 0x0 DUP3 ADD MSTORE PUSH32 0x746869732066756E6374696F6E00000000000000000000000000000000000000 PUSH1 0x20 DUP3 ADD MSTORE POP JUMP JUMPDEST PUSH1 0x0 PUSH2 0x2551 PUSH1 0x2D DUP4 PUSH2 0x22B7 JUMP JUMPDEST SWAP2 POP PUSH2 0x255C DUP3 PUSH2 0x24F5 JUMP JUMPDEST PUSH1 0x40 DUP3 ADD SWAP1 POP SWAP2 SWAP1 POP JUMP JUMPDEST PUSH1 0x0 PUSH1 0x20 DUP3 ADD SWAP1 POP DUP2 DUP2 SUB PUSH1 0x0 DUP4 ADD MSTORE PUSH2 0x2580 DUP2 PUSH2 0x2544 JUMP JUMPDEST SWAP1 POP SWAP2 SWAP1 POP JUMP JUMPDEST PUSH32 0x43616E277420636C61696D207061796D656E7400000000000000000000000000 PUSH1 0x0 DUP3 ADD MSTORE POP JUMP JUMPDEST PUSH1 0x0 PUSH2 0x25BD PUSH1 0x13 DUP4 PUSH2 0x22B7 JUMP JUMPDEST SWAP2 POP PUSH2 0x25C8 DUP3 PUSH2 0x2587 JUMP JUMPDEST PUSH1 0x20 DUP3 ADD SWAP1 POP SWAP2 SWAP1 POP JUMP JUMPDEST PUSH1 0x0 PUSH1 0x20 DUP3 ADD SWAP1 POP DUP2 DUP2 SUB PUSH1 0x0 DUP4 ADD MSTORE PUSH2 0x25EC DUP2 PUSH2 0x25B0 JUMP JUMPDEST SWAP1 POP SWAP2 SWAP1 POP JUMP JUMPDEST PUSH32 0x5061696420616D6F756E7420646F6573206E6F74206D61746368207468652063 PUSH1 0x0 DUP3 ADD MSTORE PUSH32 0x6C61696D00000000000000000000000000000000000000000000000000000000 PUSH1 0x20 DUP3 ADD MSTORE POP JUMP JUMPDEST PUSH1 0x0 PUSH2 0x264F PUSH1 0x24 DUP4 PUSH2 0x22B7 JUMP JUMPDEST SWAP2 POP PUSH2 0x265A DUP3 PUSH2 0x25F3 JUMP JUMPDEST PUSH1 0x40 DUP3 ADD SWAP1 POP SWAP2 SWAP1 POP JUMP JUMPDEST PUSH1 0x0 PUSH1 0x20 DUP3 ADD SWAP1 POP DUP2 DUP2 SUB PUSH1 0x0 DUP4 ADD MSTORE PUSH2 0x267E DUP2 PUSH2 0x2642 JUMP JUMPDEST SWAP1 POP SWAP2 SWAP1 POP JUMP JUMPDEST PUSH1 0x0 PUSH1 0x40 DUP3 ADD SWAP1 POP PUSH2 0x269A PUSH1 0x0 DUP4 ADD DUP6 PUSH2 0x1DD7 JUMP JUMPDEST PUSH2 0x26A7 PUSH1 0x20 DUP4 ADD DUP5 PUSH2 0x1BA3 JUMP JUMPDEST SWAP4 SWAP3 POP POP POP JUMP JUMPDEST PUSH32 0x4F6E6C79207265676973746572656420706861726D61637920697320616C6C6F PUSH1 0x0 DUP3 ADD MSTORE PUSH32 0x7765640000000000000000000000000000000000000000000000000000000000 PUSH1 0x20 DUP3 ADD MSTORE POP JUMP JUMPDEST PUSH1 0x0 PUSH2 0x270A PUSH1 0x23 DUP4 PUSH2 0x22B7 JUMP JUMPDEST SWAP2 POP PUSH2 0x2715 DUP3 PUSH2 0x26AE JUMP JUMPDEST PUSH1 0x40 DUP3 ADD SWAP1 POP SWAP2 SWAP1 POP JUMP JUMPDEST PUSH1 0x0 PUSH1 0x20 DUP3 ADD SWAP1 POP DUP2 DUP2 SUB PUSH1 0x0 DUP4 ADD MSTORE PUSH2 0x2739 DUP2 PUSH2 0x26FD JUMP JUMPDEST SWAP1 POP SWAP2 SWAP1 POP JUMP JUMPDEST PUSH32 0x576169742074696C6C206D65646963696E6520697320636F6C6C656374656400 PUSH1 0x0 DUP3 ADD MSTORE POP JUMP JUMPDEST PUSH1 0x0 PUSH2 0x2776 PUSH1 0x1F DUP4 PUSH2 0x22B7 JUMP JUMPDEST SWAP2 POP PUSH2 0x2781 DUP3 PUSH2 0x2740 JUMP JUMPDEST PUSH1 0x20 DUP3 ADD SWAP1 POP SWAP2 SWAP1 POP JUMP JUMPDEST PUSH1 0x0 PUSH1 0x20 DUP3 ADD SWAP1 POP DUP2 DUP2 SUB PUSH1 0x0 DUP4 ADD MSTORE PUSH2 0x27A5 DUP2 PUSH2 0x2769 JUMP JUMPDEST SWAP1 POP SWAP2 SWAP1 POP JUMP JUMPDEST PUSH32 0x5265717565737420697320616C72656164792070726F63657373656400000000 PUSH1 0x0 DUP3 ADD MSTORE POP JUMP JUMPDEST PUSH1 0x0 PUSH2 0x27E2 PUSH1 0x1C DUP4 PUSH2 0x22B7 JUMP JUMPDEST SWAP2 POP PUSH2 0x27ED DUP3 PUSH2 0x27AC JUMP JUMPDEST PUSH1 0x20 DUP3 ADD SWAP1 POP SWAP2 SWAP1 POP JUMP JUMPDEST PUSH1 0x0 PUSH1 0x20 DUP3 ADD SWAP1 POP DUP2 DUP2 SUB PUSH1 0x0 DUP4 ADD MSTORE PUSH2 0x2811 DUP2 PUSH2 0x27D5 JUMP JUMPDEST SWAP1 POP SWAP2 SWAP1 POP JUMP JUMPDEST PUSH32 0x4E487B7100000000000000000000000000000000000000000000000000000000 PUSH1 0x0 MSTORE PUSH1 0x32 PUSH1 0x4 MSTORE PUSH1 0x24 PUSH1 0x0 REVERT JUMPDEST PUSH1 0x0 DUP2 SWAP1 POP SWAP2 SWAP1 POP JUMP JUMPDEST PUSH1 0x0 DUP2 SWAP1 POP SWAP2 SWAP1 POP JUMP JUMPDEST PUSH1 0x0 PUSH2 0x2876 PUSH2 0x2871 PUSH2 0x286C DUP5 PUSH2 0x2847 JUMP JUMPDEST PUSH2 0x2851 JUMP JUMPDEST PUSH2 0x1B99 JUMP JUMPDEST SWAP1 POP SWAP2 SWAP1 POP JUMP JUMPDEST PUSH2 0x2886 DUP2 PUSH2 0x285B JUMP JUMPDEST DUP3 MSTORE POP POP JUMP JUMPDEST PUSH1 0x0 PUSH1 0x20 DUP3 ADD SWAP1 POP PUSH2 0x28A1 PUSH1 0x0 DUP4 ADD DUP5 PUSH2 0x287D JUMP JUMPDEST SWAP3 SWAP2 POP POP JUMP JUMPDEST PUSH1 0x0 DUP2 SWAP1 POP SWAP2 SWAP1 POP JUMP JUMPDEST PUSH1 0x0 PUSH2 0x28CC PUSH2 0x28C7 PUSH2 0x28C2 DUP5 PUSH2 0x28A7 JUMP JUMPDEST PUSH2 0x2851 JUMP JUMPDEST PUSH2 0x1B99 JUMP JUMPDEST SWAP1 POP SWAP2 SWAP1 POP JUMP JUMPDEST PUSH2 0x28DC DUP2 PUSH2 0x28B1 JUMP JUMPDEST DUP3 MSTORE POP POP JUMP JUMPDEST PUSH1 0x0 PUSH1 0x20 DUP3 ADD SWAP1 POP PUSH2 0x28F7 PUSH1 0x0 DUP4 ADD DUP5 PUSH2 0x28D3 JUMP JUMPDEST SWAP3 SWAP2 POP POP JUMP JUMPDEST PUSH32 0x506861726D61637920617070726F76616C207265717569726564000000000000 PUSH1 0x0 DUP3 ADD MSTORE POP JUMP JUMPDEST PUSH1 0x0 PUSH2 0x2933 PUSH1 0x1A DUP4 PUSH2 0x22B7 JUMP JUMPDEST SWAP2 POP PUSH2 0x293E DUP3 PUSH2 0x28FD JUMP JUMPDEST PUSH1 0x20 DUP3 ADD SWAP1 POP SWAP2 SWAP1 POP JUMP JUMPDEST PUSH1 0x0 PUSH1 0x20 DUP3 ADD SWAP1 POP DUP2 DUP2 SUB PUSH1 0x0 DUP4 ADD MSTORE PUSH2 0x2962 DUP2 PUSH2 0x2926 JUMP JUMPDEST SWAP1 POP SWAP2 SWAP1 POP JUMP JUMPDEST PUSH32 0x4F6E6C792050687973696369616E2063616E2063726561746520507265736372 PUSH1 0x0 DUP3 ADD MSTORE PUSH32 0x697074696F6E0000000000000000000000000000000000000000000000000000 PUSH1 0x20 DUP3 ADD MSTORE POP JUMP JUMPDEST PUSH1 0x0 PUSH2 0x29C5 PUSH1 0x26 DUP4 PUSH2 0x22B7 JUMP JUMPDEST SWAP2 POP PUSH2 0x29D0 DUP3 PUSH2 0x2969 JUMP JUMPDEST PUSH1 0x40 DUP3 ADD SWAP1 POP SWAP2 SWAP1 POP JUMP JUMPDEST PUSH1 0x0 PUSH1 0x20 DUP3 ADD SWAP1 POP DUP2 DUP2 SUB PUSH1 0x0 DUP4 ADD MSTORE PUSH2 0x29F4 DUP2 PUSH2 0x29B8 JUMP JUMPDEST SWAP1 POP SWAP2 SWAP1 POP JUMP JUMPDEST PUSH1 0x0 DUP2 MLOAD SWAP1 POP SWAP2 SWAP1 POP JUMP JUMPDEST PUSH1 0x0 DUP2 SWAP1 POP PUSH1 0x20 DUP3 ADD SWAP1 POP SWAP2 SWAP1 POP JUMP JUMPDEST PUSH1 0x0 PUSH2 0x2A22 DUP3 MLOAD PUSH2 0x1E2A JUMP JUMPDEST DUP1 SWAP2 POP POP SWAP2 SWAP1 POP JUMP JUMPDEST PUSH1 0x0 DUP3 DUP3 SHL SWAP1 POP SWAP3 SWAP2 POP POP JUMP JUMPDEST PUSH1 0x0 PUSH2 0x2A43 DUP3 PUSH2 0x29FB JUMP JUMPDEST DUP3 PUSH2 0x2A4D DUP5 PUSH2 0x2A06 JUMP JUMPDEST SWAP1 POP PUSH2 0x2A58 DUP2 PUSH2 0x2A16 JUMP JUMPDEST SWAP3 POP PUSH1 0x20 DUP3 LT ISZERO PUSH2 0x2A98 JUMPI PUSH2 0x2A93 PUSH32 0xFFFFFFFFFFFFFFFFFFFFFFFFFFFFFFFFFFFFFFFFFFFFFFFFFFFFFFFFFFFFFFFF DUP4 PUSH1 0x20 SUB PUSH1 0x8 MUL PUSH2 0x2A2B JUMP JUMPDEST DUP4 AND SWAP3 POP JUMPDEST POP POP SWAP2 SWAP1 POP JUMP JUMPDEST PUSH1 0x0 PUSH1 0x40 DUP3 ADD SWAP1 POP PUSH2 0x2AB4 PUSH1 0x0 DUP4 ADD DUP6 PUSH2 0x1BA3 JUMP JUMPDEST PUSH2 0x2AC1 PUSH1 0x20 DUP4 ADD DUP5 PUSH2 0x1E34 JUMP JUMPDEST SWAP4 SWAP3 POP POP POP JUMP JUMPDEST PUSH32 0x4E6F742072656164792C2074727920616761696E206C61746572000000000000 PUSH1 0x0 DUP3 ADD MSTORE POP JUMP JUMPDEST PUSH1 0x0 PUSH2 0x2AFE PUSH1 0x1A DUP4 PUSH2 0x22B7 JUMP JUMPDEST SWAP2 POP PUSH2 0x2B09 DUP3 PUSH2 0x2AC8 JUMP JUMPDEST PUSH1 0x20 DUP3 ADD SWAP1 POP SWAP2 SWAP1 POP JUMP JUMPDEST PUSH1 0x0 PUSH1 0x20 DUP3 ADD SWAP1 POP DUP2 DUP2 SUB PUSH1 0x0 DUP4 ADD MSTORE PUSH2 0x2B2D DUP2 PUSH2 0x2AF1 JUMP JUMPDEST SWAP1 POP SWAP2 SWAP1 POP JUMP JUMPDEST PUSH1 0x0 PUSH1 0x60 DUP3 ADD SWAP1 POP PUSH2 0x2B49 PUSH1 0x0 DUP4 ADD DUP7 PUSH2 0x1DD7 JUMP JUMPDEST PUSH2 0x2B56 PUSH1 0x20 DUP4 ADD DUP6 PUSH2 0x1BA3 JUMP JUMPDEST PUSH2 0x2B63 PUSH1 0x40 DUP4 ADD DUP5 PUSH2 0x1E34 JUMP JUMPDEST SWAP5 SWAP4 POP POP POP POP JUMP JUMPDEST PUSH32 0x436C61696D2069732072656A6563746564000000000000000000000000000000 PUSH1 0x0 DUP3 ADD MSTORE POP JUMP JUMPDEST PUSH1 0x0 PUSH2 0x2BA1 PUSH1 0x11 DUP4 PUSH2 0x22B7 JUMP JUMPDEST SWAP2 POP PUSH2 0x2BAC DUP3 PUSH2 0x2B6B JUMP JUMPDEST PUSH1 0x20 DUP3 ADD SWAP1 POP SWAP2 SWAP1 POP JUMP JUMPDEST PUSH1 0x0 PUSH1 0x20 DUP3 ADD SWAP1 POP DUP2 DUP2 SUB PUSH1 0x0 DUP4 ADD MSTORE PUSH2 0x2BD0 DUP2 PUSH2 0x2B94 JUMP JUMPDEST SWAP1 POP SWAP2 SWAP1 POP JUMP JUMPDEST PUSH32 0x506861726D616379206E6F742072656769737465726564000000000000000000 PUSH1 0x0 DUP3 ADD MSTORE POP JUMP JUMPDEST PUSH1 0x0 PUSH2 0x2C0D PUSH1 0x17 DUP4 PUSH2 0x22B7 JUMP JUMPDEST SWAP2 POP PUSH2 0x2C18 DUP3 PUSH2 0x2BD7 JUMP JUMPDEST PUSH1 0x20 DUP3 ADD SWAP1 POP SWAP2 SWAP1 POP JUMP JUMPDEST PUSH1 0x0 PUSH1 0x20 DUP3 ADD SWAP1 POP DUP2 DUP2 SUB PUSH1 0x0 DUP4 ADD MSTORE PUSH2 0x2C3C DUP2 PUSH2 0x2C00 JUMP JUMPDEST SWAP1 POP SWAP2 SWAP1 POP JUMP JUMPDEST PUSH32 0x5265717565737420616C72656164792070726F63657373656400000000000000 PUSH1 0x0 DUP3 ADD MSTORE POP JUMP JUMPDEST PUSH1 0x0 PUSH2 0x2C79 PUSH1 0x19 DUP4 PUSH2 0x22B7 JUMP JUMPDEST SWAP2 POP PUSH2 0x2C84 DUP3 PUSH2 0x2C43 JUMP JUMPDEST PUSH1 0x20 DUP3 ADD SWAP1 POP SWAP2 SWAP1 POP JUMP JUMPDEST PUSH1 0x0 PUSH1 0x20 DUP3 ADD SWAP1 POP DUP2 DUP2 SUB PUSH1 0x0 DUP4 ADD MSTORE PUSH2 0x2CA8 DUP2 PUSH2 0x2C6C JUMP JUMPDEST SWAP1 POP SWAP2 SWAP1 POP JUMP JUMPDEST PUSH1 0x0 PUSH1 0x80 DUP3 ADD SWAP1 POP PUSH2 0x2CC4 PUSH1 0x0 DUP4 ADD DUP8 PUSH2 0x1DD7 JUMP JUMPDEST PUSH2 0x2CD1 PUSH1 0x20 DUP4 ADD DUP7 PUSH2 0x287D JUMP JUMPDEST PUSH2 0x2CDE PUSH1 0x40 DUP4 ADD DUP6 PUSH2 0x1BA3 JUMP JUMPDEST PUSH2 0x2CEB PUSH1 0x60 DUP4 ADD DUP5 PUSH2 0x1DD7 JUMP JUMPDEST SWAP6 SWAP5 POP POP POP POP POP JUMP JUMPDEST PUSH1 0x0 DUP2 SWAP1 POP SWAP2 SWAP1 POP JUMP JUMPDEST PUSH1 0x0 PUSH2 0x2D19 PUSH2 0x2D14 PUSH2 0x2D0F DUP5 PUSH2 0x2CF4 JUMP JUMPDEST PUSH2 0x2851 JUMP JUMPDEST PUSH2 0x1B99 JUMP JUMPDEST SWAP1 POP SWAP2 SWAP1 POP JUMP JUMPDEST PUSH2 0x2D29 DUP2 PUSH2 0x2CFE JUMP JUMPDEST DUP3 MSTORE POP POP JUMP JUMPDEST PUSH1 0x0 PUSH1 0x80 DUP3 ADD SWAP1 POP PUSH2 0x2D44 PUSH1 0x0 DUP4 ADD DUP8 PUSH2 0x1DD7 JUMP JUMPDEST PUSH2 0x2D51 PUSH1 0x20 DUP4 ADD DUP7 PUSH2 0x2D20 JUMP JUMPDEST PUSH2 0x2D5E PUSH1 0x40 DUP4 ADD DUP6 PUSH2 0x1BA3 JUMP JUMPDEST PUSH2 0x2D6B PUSH1 0x60 DUP4 ADD DUP5 PUSH2 0x1DD7 JUMP JUMPDEST SWAP6 SWAP5 POP POP POP POP POP JUMP INVALID LOG2 PUSH5 0x6970667358 0x22 SLT KECCAK256 0xDD 0xD 0x24 RETURNDATACOPY 0xE1 RETURN ORIGIN 0xF9 INVALID GAS 0x27 0xEC 0xBE PUSH27 0x77AC2183DFB70C65D94C8B810A1418EDFCF864736F6C634300080F STOP CALLER "
        },
        "gasEstimates": {
          "creation": {
            "codeDepositCost": "2338000",
            "executionCost": "infinite",
            "totalCost": "infinite"
          },
          "external": {
            "ApprovalState()": "2583",
            "ClaimPayment(uint256)": "infinite",
            "Drug1CRN()": "2518",
            "Drug2CRN()": "2453",
            "Drug3CRN()": "2540",
            "DrugTotalCost()": "2562",
            "IPFShash()": "2496",
            "InsuranceApproval(uint8,address,uint256)": "infinite",
            "InsuranceApprovalstate()": "2698",
            "MedicationCollection(uint256)": "infinite",
            "MedicationInvoice_ID()": "2496",
            "MedicationPreparation(uint256)": "infinite",
            "MedicineCollectionstate()": "2678",
            "PaidAmount()": "2451",
            "Patient_ID()": "2561",
            "PaymentRequest(uint256,uint256)": "infinite",
            "Paymentstate()": "2655",
            "PharmaciesSelection(address,uint256)": "infinite",
            "Pharmacies_Selection(address)": "infinite",
            "PharmacyApproval(address)": "infinite",
            "PrescriptionCreation(uint256,uint256,uint256,uint256,string)": "infinite",
            "RequestInsuranceApproval(uint256,uint256,uint256,uint256)": "infinite",
            "selectionCounter(address)": "2903"
          }
        },
        "methodIdentifiers": {
          "ApprovalState()": "696885dd",
          "ClaimPayment(uint256)": "3e773b86",
          "Drug1CRN()": "966bb904",
          "Drug2CRN()": "0ea4f4a6",
          "Drug3CRN()": "563e72fb",
          "DrugTotalCost()": "bba4ec0b",
          "IPFShash()": "4f377720",
          "InsuranceApproval(uint8,address,uint256)": "d89a3143",
          "InsuranceApprovalstate()": "d31c172d",
          "MedicationCollection(uint256)": "ce52068c",
          "MedicationInvoice_ID()": "7822f78e",
          "MedicationPreparation(uint256)": "ce65f4c3",
          "MedicineCollectionstate()": "38e26fd5",
          "PaidAmount()": "c0c700c1",
          "Patient_ID()": "d8f0837b",
          "PaymentRequest(uint256,uint256)": "43e8a405",
          "Paymentstate()": "6ff649e8",
          "PharmaciesSelection(address,uint256)": "4e3502ea",
          "Pharmacies_Selection(address)": "31b6da61",
          "PharmacyApproval(address)": "45509eef",
          "PrescriptionCreation(uint256,uint256,uint256,uint256,string)": "af7dc4b0",
          "RequestInsuranceApproval(uint256,uint256,uint256,uint256)": "67a6885a",
          "selectionCounter(address)": "506a203b"
        }
      },
      "storageLayout": {
        "storage": [
          {
            "astId": 164,
            "contract": "contracts/Medicare_claims.sol:Approval",
            "label": "reg",
            "offset": 0,
            "slot": "0",
            "type": "t_contract(Registration)161"
          },
          {
            "astId": 175,
            "contract": "contracts/Medicare_claims.sol:Approval",
            "label": "PharmaciesSelection",
            "offset": 0,
            "slot": "1",
            "type": "t_mapping(t_address,t_array(t_struct(PharmacySelect)169_storage)dyn_storage)"
          },
          {
            "astId": 179,
            "contract": "contracts/Medicare_claims.sol:Approval",
            "label": "selectionCounter",
            "offset": 0,
            "slot": "2",
            "type": "t_mapping(t_address,t_uint256)"
          },
          {
            "astId": 181,
            "contract": "contracts/Medicare_claims.sol:Approval",
            "label": "IPFShash",
            "offset": 0,
            "slot": "3",
            "type": "t_bytes32"
          },
          {
            "astId": 187,
            "contract": "contracts/Medicare_claims.sol:Approval",
            "label": "ApprovalState",
            "offset": 0,
            "slot": "4",
            "type": "t_enum(ApprovalRequestState)184"
          },
          {
            "astId": 194,
            "contract": "contracts/Medicare_claims.sol:Approval",
            "label": "InsuranceApprovalstate",
            "offset": 1,
            "slot": "4",
            "type": "t_enum(InsuranceApprovalState)191"
          },
          {
            "astId": 200,
            "contract": "contracts/Medicare_claims.sol:Approval",
            "label": "MedicineCollectionstate",
            "offset": 2,
            "slot": "4",
            "type": "t_enum(MedicineCollectionState)197"
          },
          {
            "astId": 206,
            "contract": "contracts/Medicare_claims.sol:Approval",
            "label": "Paymentstate",
            "offset": 3,
            "slot": "4",
            "type": "t_enum(PaymentState)203"
          },
          {
            "astId": 208,
            "contract": "contracts/Medicare_claims.sol:Approval",
            "label": "Patient_ID",
            "offset": 0,
            "slot": "5",
            "type": "t_uint256"
          },
          {
            "astId": 210,
            "contract": "contracts/Medicare_claims.sol:Approval",
            "label": "Drug1CRN",
            "offset": 0,
            "slot": "6",
            "type": "t_uint256"
          },
          {
            "astId": 212,
            "contract": "contracts/Medicare_claims.sol:Approval",
            "label": "Drug2CRN",
            "offset": 0,
            "slot": "7",
            "type": "t_uint256"
          },
          {
            "astId": 214,
            "contract": "contracts/Medicare_claims.sol:Approval",
            "label": "Drug3CRN",
            "offset": 0,
            "slot": "8",
            "type": "t_uint256"
          },
          {
            "astId": 216,
            "contract": "contracts/Medicare_claims.sol:Approval",
            "label": "MedicationInvoice_ID",
            "offset": 0,
            "slot": "9",
            "type": "t_uint256"
          },
          {
            "astId": 218,
            "contract": "contracts/Medicare_claims.sol:Approval",
            "label": "DrugTotalCost",
            "offset": 0,
            "slot": "10",
            "type": "t_uint256"
          },
          {
            "astId": 220,
            "contract": "contracts/Medicare_claims.sol:Approval",
            "label": "PaidAmount",
            "offset": 0,
            "slot": "11",
            "type": "t_uint256"
          }
        ],
        "types": {
          "t_address": {
            "encoding": "inplace",
            "label": "address",
            "numberOfBytes": "20"
          },
          "t_array(t_struct(PharmacySelect)169_storage)dyn_storage": {
            "base": "t_struct(PharmacySelect)169_storage",
            "encoding": "dynamic_array",
            "label": "struct Approval.PharmacySelect[]",
            "numberOfBytes": "32"
          },
          "t_bool": {
            "encoding": "inplace",
            "label": "bool",
            "numberOfBytes": "1"
          },
          "t_bytes32": {
            "encoding": "inplace",
            "label": "bytes32",
            "numberOfBytes": "32"
          },
          "t_contract(Registration)161": {
            "encoding": "inplace",
            "label": "contract Registration",
            "numberOfBytes": "20"
          },
          "t_enum(ApprovalRequestState)184": {
            "encoding": "inplace",
            "label": "enum Approval.ApprovalRequestState",
            "numberOfBytes": "1"
          },
          "t_enum(InsuranceApprovalState)191": {
            "encoding": "inplace",
            "label": "enum Approval.InsuranceApprovalState",
            "numberOfBytes": "1"
          },
          "t_enum(MedicineCollectionState)197": {
            "encoding": "inplace",
            "label": "enum Approval.MedicineCollectionState",
            "numberOfBytes": "1"
          },
          "t_enum(PaymentState)203": {
            "encoding": "inplace",
            "label": "enum Approval.PaymentState",
            "numberOfBytes": "1"
          },
          "t_mapping(t_address,t_array(t_struct(PharmacySelect)169_storage)dyn_storage)": {
            "encoding": "mapping",
            "key": "t_address",
            "label": "mapping(address => struct Approval.PharmacySelect[])",
            "numberOfBytes": "32",
            "value": "t_array(t_struct(PharmacySelect)169_storage)dyn_storage"
          },
          "t_mapping(t_address,t_uint256)": {
            "encoding": "mapping",
            "key": "t_address",
            "label": "mapping(address => uint256)",
            "numberOfBytes": "32",
            "value": "t_uint256"
          },
          "t_struct(PharmacySelect)169_storage": {
            "encoding": "inplace",
            "label": "struct Approval.PharmacySelect",
            "members": [
              {
                "astId": 166,
                "contract": "contracts/Medicare_claims.sol:Approval",
                "label": "registeredPharmacy",
                "offset": 0,
                "slot": "0",
                "type": "t_address"
              },
              {
                "astId": 168,
                "contract": "contracts/Medicare_claims.sol:Approval",
                "label": "isSelected",
                "offset": 20,
                "slot": "0",
                "type": "t_bool"
              }
            ],
            "numberOfBytes": "32"
          },
          "t_uint256": {
            "encoding": "inplace",
            "label": "uint256",
            "numberOfBytes": "32"
          }
        }
      },
      "userdoc": {
        "kind": "user",
        "methods": {},
        "version": 1
      }
    }
  }
}